:100000000C94E4020C942B030C942B030C942B0300
:100010000C942B030C942B030C942B030C942B03A8
:100020000C942B030C942B030C949F190C945B19C8
:100030000C94D41E0C942B030C942B030C942B03C4
:100040000C942B030C942B030C942B030C942B0378
:100050000C942B030C94B01E0C942B030C942B03C8
:100060000C942B030C942B030C942B030C942B0358
:100070000C942B030C942B030C942B030C942B0348
:100080000C942B030C942B030C942B030C942B0338
:100090000C942B030C942B030C942B030C942B0328
:1000A0000C942B030C942B030C942B0305010902D5
:1000B000A10185020901A100050919012905150001
:1000C00025019505750181029501750381010501E1
:1000D000093009311581257F950275088106093897
:1000E0001581257F950175088106050C0A380215D2
:1000F00081257F950175088106C0C005010980A191
:1001000001850319012AB700150126B7009501756D
:10011000108100C0050C0901A101850419012AA064
:1001200002150126A002950175108100C00660FF2E
:100130000961A1010962150026FF0095207508815B
:10014000020963150026FF00952075089102C0057D
:10015000010906A101050719E029E7150025019508
:1001600008750181029501750881010507190029AB
:10017000FF150026FF009506750881000508190186
:100180002905950575019102950175039101C03A04
:10019000003B0029001E001F002000210022002338
:1001A0000024002500260027002D002E00350049E0
:1001B000004A004B003C003D002B0014001A0008D0
:1001C00000150017001C0018000C00120013002F6F
:1001D00000300031004C004D004E003E003F003921
:1001E0000004001600070009000A000B000D000EB5
:1001F000000F003300340028002A00000000000037
:100200000040004100E1001D001B00060019000530
:100210000011001000360037003800E50000000132
:100220005100005200000042004300E000E300E201
:10023000000000000000002C00000000000000E6AC
:1002400000E700E4000000500051004F00010001F1
:100250000001000100010001000100010001000196
:100260000001000100010001000100010001000186
:100270000001000100010001000100010001000176
:100280000001000100010001000100010001000166
:100290000001000100010001000100010001000156
:1002A0000001000100010001000100010001000146
:1002B0000001000100010001000000000000000139
:1002C0000001000100010001000100010001000126
:1002D0000001000100010001000100000001000018
:1002E0000001000000010001000100010001000008
:1002F00000000000000100000000000000010001FB
:1003000000010000000100010001000100010001E6
:1003100000010001000100010001000100010001D5
:1003200000010001000100010001000100010001C5
:1003300000010001000100010001000100010001B5
:1003400000010001000100010001000100010001A5
:100350000001000100010001000100010001000195
:100360000001000100010001000100010001000185
:100370000001000100010000000000000001000178
:100380000001000100010001000100010001000165
:100390000001000100010001000000010000000157
:1003A0000000000100010001000100010000000048
:1003B0000000000100000000000000010001000139
:1003C0000000000100010001000100010001000126
:1003D0000001000100010001000100010001000115
:1003E0000001000100010001000100010001000105
:1003F00000010001000100010001000100010001F5
:1004000000010001000100010001000100010001E4
:1004100000010001000100010001000100010001D4
:1004200000010001000100010001000100010001C4
:1004300000010001000000000000000100010001B7
:1004400000010001000100010001000100010001A4
:100450000001000100010000000100000001000097
:100460000001000100010001000100000000000087
:100470000001000000000000000100010001000078
:100480000001000100010000000000000000000069
:1004900000000000000000000000007E0F00D4FFFC
:1004A000FFFFC70000007800000000000000002AE5
:1004B0002B280000000000000000000000000000E9
:1004C000000029000000002C1E34202122243426A4
:1004D00027252E362D3738271E1F2021222324259D
:1004E000263333362E37381F0405060708090A0B52
:1004F0000C0D0E0F101112131415161718191A1BC4
:100500001C1D2F3130232D350405060708090A0B61
:100510000C0D0E0F101112131415161718191A1BA3
:100520001C1D2F3130354C09025B00030100A0FA7D
:100530000904000001030101000921110100012249
:1005400040000705810308000A09040100020300B6
:100550000000092111010001222200070582032069
:100560000001070503032000010904020001030044
:1005700000000921110100012281000705840320E8
:10058000000A12011001000000086F790404010044
:10059000010203010403300000001C0379006F0016
:1005A0006F0074002000630061006C006C00690043
:1005B0006F007000650000000A0379006F006F0093
:1005C000740000000403090411241FBECFEFDAE019
:1005D000DEBFCDBF04B603FE27C0809163029091B9
:1005E0006402A0916502B09166028730904BA740EB
:1005F000B04BD1F410926302109264021092650223
:100600001092660214BE84B7877F84BF0FB6F89439
:10061000A8958091600088618093600010926000CE
:100620000FBEE0E0F8E3099511E0A0E0B1E0E6E5F7
:10063000FFE302C005900D92A436B107D9F722E07E
:10064000A4E6B1E001C01D92A336B207E1F70E9413
:100650007A1A0C94721F0C940000E8EDF0E080818F
:100660008E7F80831092E2001092DA001092E100F7
:10067000A0EEB0E08C9181608C9380818F77808335
:1006800019BCA7EDB0E08C918E7F8C9380818F7E1A
:1006900080831092480208952091E4003091E50093
:1006A00095E6A9012091EC00822F817020FF06C001
:1006B0008091E80080FF06C080E008952091E80066
:1006C00022FD1AC080915E02882389F0853089F06E
:1006D0008091EB0085FD0FC02091E4003091E50092
:1006E00042175307F9F29150E1F684E0089582E051
:1006F000089583E0089581E00895EF92FF920F93AB
:100700001F93CF937C018B010E944C03C82F811152
:1007100017C08091E80085FD0BC08091E8008E77BE
:100720008093E8000E944C03882399F3C82F08C0E7
:10073000F70181917F018093F1000150110949F780
:100740008C2FCF911F910F91FF90EF900895CF9331
:10075000FC0180915E02843001F5C091E900CF7008
:100760002091EC00922F917020FD90E8C92B82E03F
:100770008093E9008091E80080FF0CC050E040E0E9
:1007800060E270E0CF010E947D038091E8008E77E7
:100790008093E800CF70C093E900CF9108958091D5
:1007A000560287FF13C08091E80082FF06C0809147
:1007B000E8008B778093E80004C080915E0281118D
:1007C000F2CF089580915E028823D9F38091E800EA
:1007D00080FFF8CF8091E8008E77ECCF982F909330
:1007E000E900242F762F50E0891731F07091EC004A
:1007F0002091ED005091F00021FD07C09F5F9730E0
:1008000071F78093E90081E008953091EB003E7F1D
:100810003093EB003091ED003D7F3093ED0030914F
:10082000EB0031603093EB007093EC002093ED000F
:100830005093F0002091EE0027FDE0CF80E0089576
:10084000CF92DF92EF92FF920F931F93CF93DF939C
:10085000C8EDD0E088818F7E8883E7EDF0E080816D
:100860008160808384E082BF81E080934802888138
:100870008E7F888302EE10E0F80110821092DA0079
:1008800081EEC82ED12CF601108288818F77888363
:1008900088818068888388818F7D888319BC1092C5
:1008A0005E0210925502109254021092530290EE82
:1008B000E92EF12CF70180818B7F80838881816014
:1008C000888342E060E080E00E94EE03F6018081D0
:1008D0008E7F8083F8018081816080838081886041
:1008E0008083F70180818E7F808388818061888307
:1008F000DF91CF911F910F91FF90EF90DF90CF90FC
:100900000895FC0180915C0290915D028617970723
:10091000A0F06115710529F49091E8009E779093FD
:10092000E80090E06115710551F4911108C08091C3
:10093000E80082FF34C080E00895BC01F2CF8091CE
:100940005E028823C1F18530C1F18091E80083FD0A
:1009500030C08091E80082FDEACF8091E80080FFFE
:10096000E1CF8091F3002091F200382F61157105DD
:1009700019F02830310558F091E02830310509F0A0
:1009800090E02091E8002E772093E800CBCF819172
:100990008093F100615071092F5F3F4FE7CF809145
:1009A0005E02882341F0853041F08091E80083FFAA
:1009B000BECF81E0089582E0089583E0089580919C
:1009C0004A02089590911602803F59F480911702CF
:1009D00087FF0DC01092170291110BC010921102E7
:1009E00008C0813F81F48091170218169CF3992367
:1009F00081F08091180290911902892B09F064C04E
:100A000010920E020895823F49F497FFF0CF1092A2
:100A10001602809117028111ECCFE0CF833F19F4C9
:100A20001916ACF3E4CF20911802893F29F412166D
:100A3000F4F610921802DBCF8A3F19F427FFD7CFC4
:100A4000F8CF209119028B3F29F427FFD0CF1092C5
:100A50001902CDCF8C3F19F41216CCF3C8CF843FC6
:100A600031F4809115028E7F80931502C0CF853FAF
:100A700021F4809115028D7FF7CF863F21F480917C
:100A800015028B7FF1CF873F21F480911502877F7C
:100A9000EBCF883F21F4809115028F7EE5CF8D3F0B
:100AA00031F48091F4018E7F8093F401A0CF8E3FCA
:100AB00021F48091F4018D7FF7CF8F3F09F097CF1C
:100AC0008091F4018B7FF0CF08958091F40180FD37
:100AD00016C081FD16C082FD16C080910E028823CB
:100AE000A1F0883280F428E0829FC001112468E2DE
:100AF00070E00E94FB1E862F672B39F0089582E07C
:100B0000089584E0089588E0089581E00895809133
:100B1000F40180FD14C081FD14C082FD16C08091D7
:100B20001102882381F0843180F422E3829FC00186
:100B3000112464E170E00E94FB1E862F08958CE072
:100B4000089589E1089585E0089582E30895803F3E
:100B500031F40E9487058195809317020895813FA3
:100B600019F40E948705F8CF823F31F40E9487056F
:100B70008195809316020895833F19F40E9487059A
:100B8000F8CF893F29F40E946505809318020895E3
:100B90008A3F21F40E9465058195F7CF8B3F31F4A0
:100BA0000E94650581958093190208958C3F19F480
:100BB0000E946505F8CF843F31F480911502816071
:100BC000809315020895853F21F48091150282607B
:100BD000F7CF863F21F4809115028460F1CF873FE3
:100BE00021F4809115028860EBCF883F21F4809139
:100BF00015028061E5CF8D3F31F48091F401816071
:100C00008093F40108958E3F21F48091F401826075
:100C1000F7CF8F3FB9F78091F4018460F1CF9C0149
:100C20004FB7F8948091440290914502A0914602FA
:100C3000B09147024FBF821B930B08952FB7F894D2
:100C40008091440290914502A0914602B0914702E2
:100C50002FBF08950E941E069C019091160280915C
:100C60001702982B21F030931302209312029091D7
:100C7000180280911902982B21F0309310022093D2
:100C80000F02E0910B02F0910C02309749F082E0E4
:100C9000809314020480F581E02D84E192E00994B0
:100CA00008958091EF0181111092EF0108958091D4
:100CB000EE019091ED01892B9091EC01892B8093AD
:100CC00064019091EF01992391F0892B8093640145
:100CD00020E086E691E0FC013191CF0131112F5FD8
:100CE000F1E08C369F07B9F721110E945106E0917F
:100CF0000B02F0910C02309731F00280F381E02D6D
:100D000084E691E009940895E6E6F1E09191891373
:100D100003C0DF0111971C9291E0EC36F907B1F79F
:100D20000895A6E6B1E0EFEF90E02D91821751F023
:100D3000EF3F19F4211101C0E92F9F5F9630A9F709
:100D4000EF3F09F408950E2E000CFF0BEC59FE4FF7
:100D50008283089523E1929F800D1124982F97702C
:100D600086958695869525E0829FF0011124E155B0
:100D7000FE4F50E040E080E0219130E0092E02C0BB
:100D8000369527950A94E2F721703327042E01C087
:100D9000220F0A94EAF7822B4F5F5F4F45305105CF
:100DA00059F7089523E1929F800D1124982F977091
:100DB00041E001C0440F9A95EAF78695869586959D
:100DC00095E0899FF0011124E155FE4F90E080E00D
:100DD00070E05191DF0111979B01082E02C03695FA
:100DE00027950A94E2F721702195252724232527AA
:100DF0002C9301968530910561F708958091AE019D
:100E000090917D01981301C008958F5F8770FACF8C
:100E1000882341F080959091EE0189238093EE0123
:100E20000C9457060895882339F09091EE01982B81
:100E30009093EE010C945706089520917301309120
:100E400074012817390771F090937401809373012E
:100E5000E0910B02F0910C02309721F00084F185B3
:100E6000E02D0994089520917101309172012817A5
:100E7000390771F09093720180937101E0910B0238
:100E8000F0910C02309721F00680F781E02D099453
:100E900008951092ED011092EC010E94570686E031
:100EA000E4E1F2E0DF011D928A95E9F71092110268
:100EB00010920E021092F4010E942A0690E080E047
:100EC0000E94330790E080E00C941D0760935F025E
:100ED0007093600280936102909362020C944907C0
:100EE0000F931F9360915F02709160028091610285
:100EF000909162028B019C010670112722273327F3
:100F0000063011052105310529F468601F910F9104
:100F10000C946607677FFACF0F931F9341E050E070
:100F200060E070E004C0440F551F661F771F8A956C
:100F3000D2F7CB01BA01609570958095909500919C
:100F40005F02109160022091610230916202602381
:100F50007123822393231F910F910C946607909124
:100F6000EB01809589238093EB01282F277071F482
:100F7000282F082E000C330B9217130639F0859595
:100F8000859585950E948C071092EB0108950F932B
:100F90001F9341E050E060E070E004C0440F551F33
:100FA000661F771F8A95D2F780915F029091600249
:100FB000A0916102B09162028A019B01082B192B5A
:100FC0002A2B3B2BC901B8011F910F910C94660786
:100FD0006093F0017093F1018093F2019093F3011B
:100FE0000C944907E0910B02F0910C02309721F02C
:100FF0000190F081E02D099480E00895882309F4A0
:1010000059C0823871F40E94F20781FF53C089E30E
:101010000E9491060E94570689E30E9484060C9460
:101020005706833859F40E94F20780FF43C083E5D6
:101030000E9491060E94570683E5EFCF843859F449
:101040000E94F20782FF36C087E40E9491060E9448
:10105000570687E4E2CF9CEF980F913AF0F290E2C6
:10106000980F983088F4877021E030E0A90102C021
:10107000440F551F8A95E2F7CA0180959091EE01C1
:1010800089238093EE01CBCF9BE5980F933020F41A
:1010900090E080E00C94330798E5980F973120F4A6
:1010A00090E080E00C941D07803F20F00E94E20455
:1010B0000C942A0608959091090292FF06C0282FE9
:1010C00028712830F9F4877F846093FF06C0282FA9
:1010D00028712831F1F4877E846120910A0220FF73
:1010E00006C0382F38713830D9F4877F816021FFEE
:1010F00006C0282F28712831D1F4877E816194FDA4
:10110000877E0895282F24712430F9F68B7F88601C
:10111000DCCF282F2471243101F78B7E8861DDCF4D
:10112000382F3171313019F78E7F8860E0CF282F4A
:101130002171213121F78E7E8861E1CFCF93DF933A
:1011400000D00F92CDB7DEB790915E02943011F5CA
:1011500089837B836A839093E9008FEF9091E80005
:10116000815095FD06C095ED9A95F1F7000081112B
:10117000F5CF8091E80085FF0DC050E040E063E0CE
:1011800070E0CE0101960E947D038091E8008E7789
:101190008093E8000F900F900F90DF91CF9108950A
:1011A000BC0184E00C949E08BC0183E00C949E0872
:1011B0009C0184E08093E9009FEF8091E8009150CA
:1011C00085FD06C085ED8A95F1F700009111F5CFF8
:1011D0008091E80085FF0CC050E040E066E070E0E0
:1011E000C9010E947D038091E8008E778093E8001A
:1011F0000895CF93DF93EC0181E08093E9008FEFB6
:101200009091E800815095FD06C095ED9A95F1F713
:1012100000008111F5CF8091E80085FF14C050E0F7
:1012200040E068E070E0CE010E947D038091E8001C
:101230008E778093E80088E0FE01ABE4B2E0019095
:101240000D928A95E1F7DF91CF91089581E0809327
:10125000E00080E28093D8001092C9008FE19EE404
:101260000197F1F700C0000087E090EBDC0180936C
:10127000630290936402A0936502B093660288E1D2
:101280009CE00FB6F894A895809360000FBE9093F1
:101290006000FFCFCF93C82F882309F490C0823815
:1012A000C1F40E94F20781FD8AC089E30E94910681
:1012B0000E9457062FEF81EE94E02150804090402D
:1012C000E1F700C0000089E30E948406CF910C94EE
:1012D00057068338A1F40E94F20780FD70C083E5B1
:1012E0000E9491060E9457062FEF81EE94E0215054
:1012F00080409040E1F700C0000083E5E5CF8438EE
:10130000A1F40E94F20782FD5AC087E40E94910670
:101310000E9457062FEF81EE94E0215080409040CC
:10132000E1F700C0000087E4CFCF8CEF8C0F813A4B
:1013300068F4E6E6F1E08191C817D9F121E0EC36D6
:10134000F207C9F78C2F0E949106C0CF80E28C0F64
:10135000883068F4C77021E030E001C0220FCA95E0
:10136000EAF78091EE01822B8093EE01AFCFEBE59F
:10137000EC0FE33040F4F0E0E55FFE4F808190E059
:10138000CF910C943307E8E5EC0FE73150F4F0E02F
:10139000EE0FFF1FE25FFE4F80819181CF910C9491
:1013A0001D07C03F60F08C2F0E94A705CF910C94C1
:1013B0002A068C2F0E9484060E945706C3CFCF9125
:1013C0000895CF93C82F0E944A09C93349F42FEFDB
:1013D00087EE93E0215080409040E1F700C000008C
:1013E0008C2FCF910C94FE070F931F93CF93DF9315
:1013F000C42FD22FFC0182818823A1F04093750174
:101400000E941E069093700180936F01C77081E067
:1014100001C0880FCA95EAF7DF91CF911F910F9114
:101420000C94130710917501141335C080916F014E
:10143000909170010E940F06883C910560F5C0E212
:10144000CD0F1D17B9F080E2810F883040F417707E
:1014500081E001C0880F1A95EAF70E940807C8309A
:1014600048F481E09D2F977001C0880F9A95EAF7A4
:101470000E941307802F0E94E109C83098F4D770AA
:1014800081E001C0880FDA95EAF7DF91CF911F91D3
:101490000F910C940807C77081E001C0880FCA95AE
:1014A000EAF7F3CFDF91CF911F910F9108952F921B
:1014B0003F924F925F926F927F928F929F92AF92E4
:1014C000BF92CF92DF92EF92FF920F931F93CF9331
:1014D000DF9300D000D000D00F92CDB7DEB72CE361
:1014E00031E005EF11E01F830E831A82812C912CCD
:1014F00054018394D9018D919D01E82FE295EF70FD
:10150000F0E091A18F7022242394312C01C0220C91
:101510008A95EAF7892F822981A382A1B22DB095FD
:10152000B9838B2382A380EA8A95F1F7A1E4B1E025
:10153000BD83AC8390E080E040E050E0BA01AC8134
:10154000BD81DD90BD83AC83ED2CE294AFE0EA2257
:10155000F12CD7019096EC90F12CBD2DBF7002C0FC
:10156000F594E794BA95E2F7E0FC62C07501640176
:10157000082E04C0CC0CDD1CEE1CFF1C0A94D2F714
:101580002601370144295529662977290196833197
:101590009105A9F681A1D9808D2181A382A1282A54
:1015A00022A2AE81BF81CD90DD90ED90FC9013978B
:1015B00080E04C155D056E057F0531F0FD0140832F
:1015C00051836283738381E0CA80C82ACA828E8174
:1015D0009F8104969F838E8391E02134390709F01F
:1015E00089CFCC2049F181E080936E010E941E06D4
:1015F00090936D0180936C0180916C0190916D01CD
:101600000E940F060697E0F0E0E3F2E089E092E046
:10161000D8014D915D916D917D918D0141935193D3
:10162000619371938A179B0799F710926E0108C016
:10163000412C512C3201A6CF80916E018111DCCF5B
:101640008A8127960FB6F894DEBF0FBECDBFDF911B
:10165000CF911F910F91FF90EF90DF90CF90BF90AF
:10166000AF909F908F907F906F905F904F903F9042
:101670002F900895CF9384E090E00E94301FC82FF0
:1016800081E290E00E94301F982F8C2FCF91089517
:101690000F931F93CF93DF93C42FD0E0CC0FDD1FA8
:1016A00026E2629FC00DD11D11243EEB839FC00D29
:1016B000D11D1124CE0186960E94301F082F10E004
:1016C000102F0027CE0187960E94301F9801282BEB
:1016D000C901DF91CF911F910F910895462F84305A
:1016E00038F4753028F4633118F4672F0C94480BE4
:1016F00090E080E00895CF93DF930E946E0BEC01A1
:1017000082389105A9F1D8F58133910509F496C085
:1017100048F58932910509F48AC08A9709F495C081
:10172000C11521E5D20708F0BCC0C11530E5D307CB
:1017300008F014C1C83ED10508F09CC0C03ED105D8
:1017400060F5C83AD10508F087C0C53AD10508F060
:10175000FDC0C130D10509F12097F9F0C430D105A1
:10176000E0F440C08533910509F45AC0C997C1F629
:1017700080910902837089F0C0EED0E00EC0833EF4
:10178000910599F170F4803E910501F1823E910539
:1017900039F68091090282FD21C0CE01DF91CF91FF
:1017A0000895863E910561F1873E910571F1843E71
:1017B000910509F0B5CF80910A0281FFEECF8091AB
:1017C0000902C7EED0E084FD0DC0E7CF8091090289
:1017D00080FD12C190910A0290FFDFCFC3EED0E0EE
:1017E00084FFDBCFD0E0C0E0D8CF8091090282FD3A
:1017F00006C190910A0290FDBFCF84FFCECFF2CFF9
:101800008091090283FDDDCFC8CF8091090283FD5D
:10181000F9C090910A0291FFF0CFC4EED0E0BDCFA5
:101820008091090285FFB9CFC9E2D0E0B6CF80919F
:10183000090285FFB2CFC5E3D0E0AFCF80910902A6
:1018400086FFABCFCAE2D0E0A8CF8091090286FF25
:10185000A4CFC1E3D0E0A1CFCF3BD10518F6C85A41
:10186000D0E0CC0FDD1FC25FDE4F0990D881C02DC4
:10187000D46493CFC11540E2D40758F4C11581E078
:10188000D80708F08ACFC03FD10508F4ABCFD065A8
:1018900084CFC11590E4D90708F4A4CFDF70D06AD3
:1018A0007CCFC11525E5D20700F5C11534E5D30776
:1018B00008F08AC0C11543E5D40708F071C0C1150E
:1018C00082E5D80708F467C0CE018370992721E02C
:1018D00030E002C0220F331F8A95E2F7C695C69505
:1018E00080E2C89FE001112452C0C11599E5D907D3
:1018F000A8F4C11528E5D20708F06BC0C11536E57C
:10190000D30708F06FCF8C2F0E945B08C82FD0E060
:10191000DC2FCC27CC27DF71D0623FCFC1154AE541
:10192000D40708F45BC0CE0190568115904208F0B0
:1019300059CF8D2F8F710E945B0890E0982F8827D8
:1019400088279F719C012C2BE901E6CFC55AD0E076
:10195000C55FDE4FC881D0E0D0641FCFCE01E4E088
:1019600096958795EA95E1F783702C2F2695269515
:10197000237040E2249F90011124382B8C2F837018
:10198000C1E0D0E002C0CC0FDD1F8A95E2F7C22B88
:10199000D32BDC6802CFDC2FCC27C16FD06AFDCE01
:1019A000CE018370992721E030E002C0220F331F5F
:1019B0008A95E2F7C695C69590E2C99FE001112489
:1019C000C22BD32BDA68E9CEDC2FCC27C46FD06AC8
:1019D000E4CEDC2FCC27C06FD06ADFCE8C2F8F7087
:1019E0000E945B0834E0D695C7953A95E1F7CF7031
:1019F0009C2FEC01D069D1CEC9E3D0E0CECEC2EEAF
:101A0000D0E0CBCEC6EED0E0C8CEBF92CF92DF9270
:101A1000EF92FF920F931F93CF93DF938C01C090AF
:101A20005F02D0906002E0906102F09062028091CB
:101A3000F0019091F101A091F201B091F301C82A57
:101A4000D92AEA2AFB2ACFE1D0E0BC2ED701C60171
:101A50000C2E04C0B695A795979587950A94D2F752
:101A600080FD0EC0219788F7B12C8B2DDF91CF918F
:101A70001F910F91FF90EF90DF90CF90BF9008954E
:101A8000B8018C2F0E947B0B019761F3EECFCF93AF
:101A9000DF93EC010E94050DBE01DF91CF910C9404
:101AA0007B0B0E94470D292F2F7092959F709250AB
:101AB0009E3078F4E92FF0E0EC58F04E0C940F1FB4
:101AC000803F19F020F4883E20F481E00895843F9F
:101AD000E1F380E00895883EC0F3813FD1F7F5CF70
:101AE000822F86958695869508956F927F928F9224
:101AF0009F92AF92BF92CF92DF92EF92FF920F939D
:101B00001F93CF93DF938FE8C82E81E0D82E9AE001
:101B1000E92EFF24F394E701CE5BD10936011BC007
:101B2000F50185909490692DC8010E943E1F682D93
:101B3000C80101960E943E1F82E0A80EB11C0E5FF4
:101B40001F4FC017D10761F786E2680E711CA69679
:101B5000CE15DF0529F08E01065211095301E0CFA1
:101B60007E018EEBE80EF11C8EEBC80ED11C82E0DC
:101B7000E81684E0F80679F6DF91CF911F910F9176
:101B8000FF90EF90DF90CF90BF90AF909F908F909D
:101B90007F906F900895CF93DF93CEE1D3E060E024
:101BA000CE010E943E1F2196C11584E0D807B9F7E7
:101BB000DF91CF910895CF93C82F6FEF811162E22B
:101BC00082E290E00E943E1F6FEFC11162E083E26B
:101BD00090E00E943E1F6FEFC11167E284E290E047
:101BE000CF910C943E1F6CEE7EEF90E080E00E945F
:101BF0005C1F60E082E090E00E943E1F60E083E0B6
:101C000090E00E943E1F1092F0011092F10110929C
:101C1000F2011092F30160E084E090E00E943E1F28
:101C200060E081E290E00E943E1F60E085E090E08D
:101C30000E943E1F60E086E090E00E943E1F6FEF32
:101C400087E090E00E943E1F40E050E0BA0188E04B
:101C500090E00E94501F60E08DE090E00E943E1FE7
:101C600040E050E0BA0188E190E00E94501F60E03F
:101C700087E190E00E943E1F40E050E0BA018CE115
:101C800090E00E94501F60E080E290E00E943E1FC2
:101C900040E050E0BA018FE090E00E94501F40E029
:101CA00050E0BA0183E190E00C94501F1092EE01D5
:101CB000E6E6F1E086E0DF011D928A95E9F70C94F3
:101CC00049071F93CF93DF93CDB7DEB7AA970FB61F
:101CD000F894DEBF0FBECDBF86E592E02091F10003
:101CE000DC012D93CD01B2E08E359B07B9F78091D1
:101CF0005702833009F471C0B8F4813009F448C048
:101D0000823009F4B2C08091E80083FF3AC180912B
:101D10005602909157029A3008F033C1E92FF0E053
:101D2000EE57F04E0C940F1F8A3009F48DC08B30A3
:101D300009F470C0893039F780915602813219F761
:101D400080915A0290915B02009711F00297D9F6A8
:101D50008091E800877F8093E8008091E80082FF0F
:101D600037C09091F3008091F200029729F480919E
:101D7000F1008B7F813021F48091F10080934A0241
:101D80008091E8008B778093E8000E94CF03BBCF5F
:101D900080915602813A09F0B6CF8091E800877FA2
:101DA0008093E80080915A0290915B02892B61F444
:101DB00068E08BE492E070E00E9481048091E8008A
:101DC0008B778093E8009FCF60E090E080E0F3CFD6
:101DD00080915E028111C1CF96CF80915602813AE7
:101DE00009F091CF80915A0290915B02892B09F002
:101DF0008ACF8091E800877F8093E8008091E80097
:101E000080FFFCCF80910A018093F1008091E8006F
:101E10008E77B9CF80915602813209F074CF8091CC
:101E20005A0290915B02892B09F06DCF8091E800F6
:101E3000877F8093E8000E94CF03809158028093AF
:101E40000A010E94560E5FCF80915602813209F03E
:101E50005ACF8091E800877F8093E8000E94CF03EB
:101E600080915902809349024ECF80915602813A67
:101E700009F049CF8091E800877F8093E800809146
:101E8000E80080FFFCCF80914902BECF803899F0F6
:101E9000823809F076C080915A028F70873008F03E
:101EA00070C08093E9008091EB0085FB882780F962
:101EB0001092E90006C08091530290915402911152
:101EC00082609091E800977F9093E8008093F10002
:101ED0001092F1008091E8008E77C0C1882309F448
:101EE000ADC1823009F04DC0809158028111B1C15D
:101EF00080915A028F702FEF280F263008F041C0D2
:101F00008093E9002091EB0020FFA3C1933031F4CE
:101F10008091EB0080628093EB009BC19091EB007D
:101F200090619093EB0021E030E001C0220F8A9590
:101F3000EAF72093EA001092EA008091EB008860B3
:101F4000EACF81111EC0109158021F778091E300E3
:101F50008078812B8093E3008091E800877F8093D5
:101F6000E8000E94CF038091E80080FFFCCF8091C1
:101F7000E30080688093E30082E0111183E08093A6
:101F80005E028091E80083FF0AC08091E800877FAD
:101F90008093E8008091EB0080628093EB00AA962A
:101FA0000FB6F894DEBF0FBECDBFDF91CF911F916A
:101FB00008958058823028F72091580230915902B4
:101FC0002C3DE3E03E07A1F583E08A838AE2898322
:101FD0004FB7F894DE01139620E03EE051E2E32F84
:101FE000F0E050935700E49120FF03C0E295EF70BA
:101FF0003F5FEF708E2F90E0EA30C0F0C7968D9370
:102000009D932F5F243159F74FBF8091E800877F60
:102010008093E8006AE270E0CE0101960E9481049C
:102020008091E8008B778093E800ABCFC096E7CF34
:1020300080915A0290915B02432F552743305105FE
:1020400009F44AC078F54130510509F485C08BE5A3
:1020500090E0E7E2F5E04230510509F092CF20919F
:10206000E800277F2093E80020915C0230915D0218
:102070008217930708F49C0140E02115310509F00F
:1020800070C041116EC08091E80082FDC9CF80917F
:102090005E02882329F2853019F28091E80083FFDF
:1020A000F2CFBECF4132510509F447C0423251054B
:1020B00009F067CF8330910508F063CFFC01EE0F84
:1020C000FF1FE95AFE4F0190F081E02D8C5A9E4F80
:1020D000DC018C9190E01DC0332721303105E9F0FF
:1020E0002115310579F022303105F9F02330310521
:1020F00009F047CFE4E9F5E0E4918E2F90E0E4E9C0
:10210000F5E007C0E4ECF5E0E4918E2F90E0E4EC1C
:10211000F5E0009709F435CFA2CFE8EBF5E0E491C4
:102120008E2F90E0E8EBF5E0F4CFEAE9F5E0E491FA
:102130008E2F90E0EAE9F5E0ECCF8330910508F0CE
:1021400020CF880F991FFC01E35AFE4F0190F081C8
:10215000E02D89E090E083CF82E190E0E2E8F5E0D5
:102160007ECF80915E02882309F45ACF853009F42E
:1021700057CF8091E80083FD53CF8091E80082FD26
:1021800082CF8091E80080FF78CF9091F30080911A
:10219000F2002115310519F08830910550F041E029
:1021A000089709F040E08091E8008E778093E8007E
:1021B00064CF44914093F10031962150310901964A
:1021C000E8CF803809F0DDCE8091E800877F8093EA
:1021D000E800809155028093F1007CCE8111D1CE30
:1021E00010915802123008F0CCCE8091E800877F21
:1021F0008093E800109355020E94CF03112311F041
:1022000084E005C08091E30087FDFACF81E08093F0
:102210005E0242E061EC81E00E94EE0342E261EC8A
:1022200084E00E94EE0342E261EC82E00E94EE0351
:1022300042E260EC83E00E94EE03A3CE809158025C
:10224000813009F09ECE81E0933009F080E08093E8
:1022500054021092E9008091E800877F8093E800A3
:102260000E94CF038ECE4F925F926F927F928F9299
:102270009F92AF92BF92CF92DF92EF92FF920F9315
:102280001F93CF93DF9300D000D00F92CDB7DEB76E
:102290007C01FC0183819481892B31F080819181C3
:1022A00089238F3F09F032C50F900F900F900F9048
:1022B0000F90DF91CF911F910F91FF90EF90DF90E2
:1022C000CF90BF90AF909F908F907F906F905F90D6
:1022D0004F9008950E94050D182F682F89819A81CB
:1022E0000E94D20669817A81812F0E946E0B8C0137
:1022F000F7018281882309F4FEC4980122513F45E9
:102300002031310508F0CEC48FEF93E00E94301FDA
:1023100002515EE1A52E53E0B52E882379F180911C
:10232000EB01877009F4C0CFF7018281882309F49B
:10233000BBCF82E00F900F900F900F900F90DF9126
:10234000CF911F910F91FF90EF90DF90CF90BF90B2
:10235000AF909F908F907F906F905F904F900C9474
:10236000AF07A114F4E0BF06D1F2C5010E94301FEF
:10237000811101C001502FEFA21AB20A0111F1CF51
:102380001C821B82662463944AE0542E85010F5FF1
:102390001F4FC5010E94301F89831A82882309F4C8
:1023A000BECF9FEF980F933008F58A83698232E0A1
:1023B000A30EB11CC8010E94301F8B83882309F42F
:1023C000AECF8E010F5F1F4FF80120812223F1F263
:1023D000213009F043C091818281913049F40E5F30
:1023E0001F4F0E94E1090F5F1F4FEECF5801E9CF49
:1023F000923029F40E5F1F4F0E944A09F4CF9330A8
:1024000029F40E5F1F4F0E94FE07EDCF943019F0A4
:102410000F5F1F4FE8CF0E5F1F4F30E020E0B80185
:102420006F5F7F4FF80141818053990B8A3091058E
:1024300050F021503109B8F28FE99FE00197F1F790
:1024400000C00000F6CF529EF001539EF00D112403
:102450009C012E0F3F1F842F8B01E1CFE22FF0E074
:10246000E955FB4F7490822F86958695869590E06E
:10247000FC01E956FB4F84902770912C022E02C07C
:10248000959487940A94E2F7E1E08E229924FC0166
:10249000E957FB4FC490D12C02C0D594C7942A951C
:1024A000E2F7F1E0CF22DD248114910419F081EEEE
:1024B0000E944A09C114D10419F086EE0E944A090B
:1024C000872D0E94E109CD2819F086EE0E94FE07B3
:1024D000892809F488CF81EE96CF81E00E94C70752
:1024E0000E9470071CCF81E00E948C07F9CF82E028
:1024F000F5CF053F2CE5120709F465C008F45DC06F
:10250000063F9CE5190709F464C0882309F40FC449
:10251000109275010230ECE51E0708F442C1063145
:10252000FCE51F0738F098012A5F3C45293031054A
:1025300008F037C10E943A0B90930A028093090277
:1025400000312CE5120709F4FBC008F085C0083003
:102550008CE5180709F4E6C008F057C00430ECE534
:102560001E0709F4D3C008F040C002302CE5120762
:1025700009F4C6C080910902826003301C4509F449
:10258000C2C06091090210910A0284E090E00E94AA
:102590003E1F612F81E290E00E943E1F0E94560E76
:1025A000BECE07E225EE45EE68ED7CE5A0C306E26F
:1025B00021EE40EE63EF7CE59AC307E225EE44EEA0
:1025C00064EF7CE594C306E221EE42EE65EF7CE524
:1025D0008EC307E225EE46EE66EF7CE588C308E28F
:1025E00021E045EE69ED7CE582C306308CE51807F5
:1025F00009F494C080910902886007301C4508F4F2
:1026000082C08091090280627EC0809109028D7F24
:102610000C30ECE51E0709F476C070F480910902D5
:102620008C600A302CE5120709F46DC008F47EC0F6
:10263000809109028E7F67C00E308CE5180709F47F
:102640007BC0809109028B7F0F301C4508F45BC072
:10265000809109028F7E57C00B3FECE51E0709F4FD
:1026600059C030F503312CE5120709F471C078F434
:1026700001318CE5180709F467C002311C4509F0E7
:1026800080CF0E94560E809109028F773CC00531A1
:10269000ECE51E0709F464C008F478C080910A02D2
:1026A00081600A3F1C4509F06CCF80930A0269CF14
:1026B0000F3F3CE5130709F44FC088F480910A02EC
:1026C0008D7F0D3F9CE5190781F380910A028E7F73
:1026D0000E3F1C4550F380910A028360E6CF013023
:1026E000FDE51F0709F45BC008F446C060E0023056
:1026F0001D4509F046CF8EE090E00E943E1F41CF7D
:10270000809109028160809309023BCF8091090288
:102710008460F9CF80910A028260C7CF809109025C
:102720008061F1CF809109028064EDCF0E94560E46
:10273000809109028068E7CF80910902877FE3CF0B
:10274000809109028F7DDFCF809109028F7BDBCFE3
:1027500080910902837FD7CF80910A028C7FA5CF19
:102760008091090282FB992790F921E0922790FB42
:1027700082F990FB83F9C7CF80910A02982F909538
:1027800091708E7F892B90FB81F98FCF0E94560E1E
:1027900090910902892F97FB87F98058B4CF61E0A7
:1027A000AACF06319CE5190709F0CCC28091EE0151
:1027B0008A7A91E009F490E090937601811106C045
:1027C00089E20E9491060E945706A9CD85E3F9CFC0
:1027D00085E3B5C20E94560EEFEFF4E32CE0E15022
:1027E000F0402040E1F700C000000E9426090E944E
:1027F000F30D95CDC8010E94AA06D82EBAC2212F8A
:102800002F70A22E107F19F0A29490EFA922DD2044
:10281000C9F0AA2069F080E2800F883010F08110A2
:102820000BC08091EE01A82AA092EE010E945706EB
:10283000802F0E944A0918C08091ED01A82AA09219
:10284000ED01F4CF802F0E94FE07AA2069F0A0942A
:10285000005E083010F081103BC08091EE01A8228C
:10286000A092EE010E945706EB2DE850FF0B349723
:1028700010F40E94F207CC2009F416CD8091EB01F0
:1028800080FD12CDF70112828595859585950E9470
:10289000C707C7010E9433118091EB01859585958B
:1028A00085950F900F900F900F900F90DF91CF9123
:1028B0001F910F91FF90EF90DF90CF90BF90AF905E
:1028C0009F908F907F906F905F904F900C948C07AB
:1028D0008091ED01A822A092ED01C4CF312F3F706D
:1028E000932E107F103219F0929480EF9822882056
:1028F00071F081E0881661F1DD20B9F1AA2071F153
:10290000F701858180FF94CF8F70858327C0DD20FC
:1029100091F09091EF01892D892BA11003C00E94A5
:102920001307A2CFE1E0AE12FACF981709F49CCFBB
:102930008093EF0199CFA11006C00E945106892D06
:102940000E94080791CFF1E0AF1609F48DCFF5CFC3
:10295000DD2031F025E02A1508F486CF892DDFCF60
:1029600034E03A1508F480CFEACFAA2041F3F9E326
:102970008F1291C12FEF37EE83E02150304080401D
:10298000E1F700C0000087C1812F8695869583708E
:1029900061F0813009F068CFC8019370D11002C096
:1029A00090E080E00E941D075FCFC8019370D110B6
:1029B00002C090E080E00E94330756CF802FDD20D8
:1029C00029F00E94A7050E942A064ECF0E94E20429
:1029D000FACF812F837009F066C0D11045CF802FC8
:1029E000829586958770880F880F602F6F70462EAE
:1029F000512C712C612C082E04C0440C551C661CF3
:102A0000771C0A94D2F740E050E0BA0104FF0FC0EF
:102A10004FE050E060E070E004C0440F551F661FB7
:102A2000771F8A95D2F74095509560957095812FC4
:102A3000869586958370823019F1D8F40091F00163
:102A40001091F1012091F2013091F301813069F090
:102A50004429552966297729CB01BA0160237123BE
:102A6000822393230E94E807FFCE402A512A622A3C
:102A7000732ACB01BA016429752986299729F2CFD7
:102A800044295529662977290091F0011091F10117
:102A90002091F2013091F301CB01BA016027712737
:102AA00082279327DFCF8695DD2011F0812F81705B
:102AB000882309F4D9CE802F829586958770880F58
:102AC000880F602F6F70462E512C712C612C082EB0
:102AD00004C0440C551C661C771C0A94D2F740E0D5
:102AE00050E0BA0104FF0FC04FE050E060E070E03A
:102AF00004C0440F551F661F771F8A95D2F7409573
:102B0000509560957095812F86958695837082305B
:102B100019F1D8F400915F021091600220916102D6
:102B200030916202813069F044295529662977295C
:102B3000CB01BA0160237123822393230E9466078D
:102B400093CE402A512A622A732ACB01BA01642902
:102B5000752986299729F2CF44295529662977298D
:102B600000915F0210916002209161023091620237
:102B7000CB01BA016027712782279327DFCF1F700F
:102B8000DD2029F0812F0E94C707802FC8CE802F1B
:102B90000E940807812F0E948C0766CE802F92EF3B
:102BA000891609F450C0981578F0E0EF8E1619F1E7
:102BB000F1EF8F1609F43FC0DD2009F467C0A110C2
:102BC00037CE812F8F713CC023EF821609F440C0AD
:102BD00034EF8312F1CFDD2009F44DC01F71812F36
:102BE0000E94C707E8E01E9FC00111248360809304
:102BF000EB01812F25C0DD20C9F084E08A1508F49F
:102C000033CE1F7161E070E080E090E004C0660F99
:102C1000771F881F991F1A95D2F700915F021091B4
:102C200060022091610230916202A4CF95E09A1572
:102C300008F41ACEE6CF812F8F71DD2009F4ABCFD7
:102C40000E94C70711CE812F8F71DD20C9F3A3CF5A
:102C500060E070E0CB01DD2009F470CF1F7161E00E
:102C600070E080E090E004C0660F771F881F991F16
:102C70001A95D2F763CF81E00E94AF07F1E0FA1511
:102C800008F0F2CD82E00E94AF07EECDAA2039F025
:102C9000893309F46FCE802F0E94FE07E5CD812F86
:102CA0008F7179CF0031FFE51F0709F416CC013190
:102CB0002FE5120709F41BCC033F2CE5120709F49A
:102CC00076CC08F016CC083D9CE5190709F469CCD0
:102CD000093DECE51E0709F482CC073DFCE51F0722
:102CE00009F013CC06E221EE41EE67ED7CE5C70169
:102CF0000E94F40914CB00313FE5130709F4F3CB2C
:102D000001319FE51907C1F682E0EECB85E0DE01D7
:102D1000119601900D928A95E1F7F7012281898140
:102D20009A812111D7CA0E94AA06182FDBCA063140
:102D30001C4589F48091760181114ACD89E20E9477
:102D4000840641CD01152CE5120709F443CD0E3D53
:102D50001C4509F44CCDF70100811181882309F449
:102D600049CDC8010E94050DD82E682FC8010E94C8
:102D7000D206B8018D2D0E947B0B8C01882EF701A5
:102D8000A580A2943FE0A322D280D1101092ED0141
:102D90008091EB01877099F0DD2089F0812F807F91
:102DA000803421F080E2800F883048F082E00E9479
:102DB000AF078091EB018770CC24C3948111C12CA3
:102DC000B12EB2942FE0B222FBE0FB1508F44CCDFB
:102DD000EB2DF0E0E457F04E0C940F1F1F93CF93B0
:102DE000DF9380917C01807FA9F480917901882311
:102DF00089F08091AE01D0917D0160917701709151
:102E00007801A0917A01B0917B01C62FC72316E00B
:102E1000D81304C0DF91CF911F91089590E01097CF
:102E200011F0CF3F19F401968770F2CF189F9001EF
:102E3000199F300D1124F901E258FE4F41814713CB
:102E4000F2CF40814613EFCF42814111ECCF438155
:102E500054814A1B5B0B483C510528F780917C014B
:102E60008F70806180937C01F901ED57FE4F808166
:102E70008F708061808387E791E00E943311DF913A
:102E8000CF911F910C94FE06AF92BF92CF92DF922A
:102E9000EF92FF920F931F93CF93DF93CDB7DEB7DF
:102EA00061970FB6F894DEBF0FBECDBF8C0185E0F1
:102EB000F801DE011D9601900D928A95E1F7F80167
:102EC00080819181E28027E7A22E21E0B22E6091DD
:102ED0007A0170917B016115710509F43EC1309151
:102EE000770140917801232F24232F3F09F435C126
:102EF000C380D480F0907901F601E61BF70BFF2028
:102F000009F4FBC020917C01522F507FE83CF10571
:102F100008F0BBC0511178C0FE2C491321C03813F2
:102F20001FC0E1101DC02F70206120937C01C501DE
:102F30000E94331180917C01F80185838F2D619669
:102F40000FB6F894DEBF0FBECDBFDF91CF911F91BA
:102F50000F91FF90EF90DF90CF90BF90AF900895CA
:102F6000CD2829F0282F29232F3F09F014C120E074
:102F7000F22FF170DF2E20FF3DC02091AE01409175
:102F80007D0156E0241315C08D879E878D859E8513
:102F90000E94470D292F22952F702230F8F02430FF
:102FA00020F59F70F9F0F8019581907FD9F4D12C2C
:102FB0001FC030E0529FF001539FF00D1124E258E2
:102FC000FE4F6181961306C06081861303C0628143
:102FD000E61210C02F5F3F4F2770D4CF9F7011F0C3
:102FE000882329F3805E883010F3C8010E943311D2
:102FF000FD2CA4CFEE2009F4A1CF80917C0181604B
:1030000080937C01F12C9ACF491312C0381310C061
:10301000E1100EC0F8012583C8010E94331186E03B
:10302000F801A7E7B1E001900D928A95E1F786CF0C
:103030008D879E878D859E850E94510D882309F17D
:10304000EE20F9F080917C01803270F020917701C0
:103050003091780138872F831986DB86CA868C8762
:10306000CE0107960E94331186E0F801A7E7B1E090
:1030700001900D928A95E1F70E94EE16FF24F394D9
:103080005DCFC8010E943311F9CF51110AC087E703
:1030900091E00E94331186E0F50111928A95E9F7DB
:1030A000B1CF49130FC038130DC0E1100BC0F801A8
:1030B0002583C8010E94331186E0F50111928A959B
:1030C000E9F73CCF8D879E878D859E850E94510DA7
:1030D0008823B9F2EE20A9F280917C01803220F29F
:1030E00020917701309178013A8329831B82DD8218
:1030F000CC828E83CE010196B5CFE83CF105E0F697
:10310000FE2CEE2009F4BDCF491316C0381314C0AD
:1031100080917C0180FD83CF982F907F09F47FCF31
:10312000F8018583903F09F477CF982F907F905FC7
:103130008F70892B858370CF8D879E878D859E8527
:103140000E94510D811190CF80917C01816080930C
:103150007C01C8010E943311F1CEEE2009F491CF19
:103160008D879E878D859E850E94510DF82E882320
:1031700009F487CF86E0F801A7E7B1E001900D924E
:103180008A95E1F780917701909178010E94470D2F
:103190000E94EE16D3CE21E02E25EACE1F93CF93C8
:1031A000DF93CDB7DEB767970FB6F894DEBF0FBEDB
:1031B000CDBF4B8B5C8B6D8B7E8B8F8B1A8A198A64
:1031C00085E0FE017396DE011D9601900D928A95B1
:1031D000E1F786E0FE013D96DE01179601900D9223
:1031E0008A95E1F7CE0107960E944417882389F05B
:1031F00016E08091AE0190917D01891349C06796D8
:103200000FB6F894DEBF0FBECDBFDF91CF911F91F7
:10321000089586E0FE013796DE01119601900D9229
:103220008A95E1F78A859B85892B11F38F81988593
:1032300089238F3FE9F220917D0130E0C901019699
:10324000877099274091AE014817190671F40E94C2
:10325000560E10927D011092AE0186E0E7E7F1E094
:10326000DF011D928A95E9F7C3CF96E0929FD001C6
:10327000939FB00D1124A258BE4FFE0131960190CC
:103280000D929A95E1F780937D010E94FE06B0CFE2
:10329000819FC001112482589E4F0E9444178823A9
:1032A00009F4ADCF8091AE0190E001968770992727
:1032B0008093AE019ECF1F920F920FB60F921124F2
:1032C0002F933F934F935F936F937F938F939F932E
:1032D000AF93BF93CF93DF93EF93FF93D091E90028
:1032E000DF708091EC00C82FC17080FDC0E81092A3
:1032F000E9008091F000877F8093F00078940E942D
:10330000610E1092E9008091F00088608093F000D7
:10331000CD2BCF70C093E900FF91EF91DF91CF915A
:10332000BF91AF919F918F917F916F915F914F91DD
:103330003F912F910F900FBE0F901F9018951F92E5
:103340000F920FB60F9211242F933F934F935F93D9
:103350006F937F938F939F93AF93BF93EF93FF935D
:103360008091E10082FF09C08091E20082FF05C0E8
:103370008091E1008B7F8093E1008091DA0080FFF3
:1033800024C08091D80080FF20C08091DA008E7F19
:103390008093DA008091D90080FF9FC080E189BDD1
:1033A00082E189BD09B400FEFDCF81E080935E0219
:1033B00080914802811109C00E942D030E942004BF
:1033C0008091E20084608093E2008091E10080FFC0
:1033D00017C08091E20080FF13C08091E2008E7FD1
:1033E0008093E2008091E20080618093E20080910E
:1033F000D80080628093D80019BC85E080935E027B
:103400008091E10084FF2DC08091E20084FF29C0FB
:1034100080E189BD82E189BD89B5982F917080FFD7
:10342000FBCF8091D8008F7D8093D8008091E10000
:103430008F7E8093E1008091E2008F7E8093E20096
:103440008091E20081608093E200809155028823A0
:1034500009F449C084E080935E020E94560E0E94E7
:10346000F2078091E10083FF27C08091E20083FF93
:1034700023C08091E100877F8093E10082E0809308
:103480005E02109255028091E1008E7F8093E100F0
:103490008091E2008E7F8093E2008091E200806163
:1034A0008093E20042E060E080E00E94EE038091C1
:1034B000F00088608093F000FF91EF91BF91AF9191
:1034C0009F918F917F916F915F914F913F912F913C
:1034D0000F900FBE0F901F90189519BC10925E02AE
:1034E0001092480272CF8091E30087FD93E09093A1
:1034F0005E02B3CFCDB7DEB7AC970FB6F894DEBFA0
:103500000FBECDBF84B7877F84BF0FB6F894A89550
:1035100080916000886180936000109260000FBE0F
:1035200080E890E00FB6F89480936100909361007A
:103530000FBE85B7806885BF85B7806885BF0E944C
:103540002D030E9420048091E20084608093E200B9
:10355000789480915E028823A1F01091E9001F7099
:103560009091EC00892F817090FD80E8182B1092CB
:10357000E9008091E80083FD0E94610E1F701093A6
:10358000E90082E084BD93E095BD9AEF97BD8093FA
:103590006E00ACE3B1E041E451E061E070E08D9198
:1035A000E82FE295EF70F0E011A18F709B0101C050
:1035B000220F8A95EAF7922F9095912391A382A1E9
:1035C000822B82A34A175B0751F7A1E4B1E044E5DF
:1035D00051E061E070E08D91E82FE295EF70F0E04E
:1035E00011A18F709B0101C0220F8A95EAF7922FDB
:1035F0009095912391A382A1822B82A34A175B0706
:1036000051F7E5EFF1E089E092E0A0E3B2E011923A
:103610001192119211921D921D921D921D928E1760
:103620009F07A9F70E94570A8FE39CE90197F1F7DA
:1036300000C000000E94570A8091300280FF0BC03A
:1036400080E00E94DB0D6FEF7FEF90E080E00E9452
:103650005C1F0E94260990E080E00E94381F8C3E8B
:103660009E4F11F00E94F30D82E290E00E94301F05
:10367000823209F055C383E290E00E94301F82300D
:1036800009F04EC384E290E00E94301F873209F0B7
:1036900047C390E080E00E94381F8C3E9E4F11F09F
:1036A0000E94F30D82E090E00E94301F80931B0285
:1036B0000E943A0B90930A028093090283E090E003
:1036C0000E94301F682F70E090E080E00E94E807C1
:1036D00080E091E090930C0280930B02A3E02A2EED
:1036E000DD24DA94B4E03B2ECC24C39480915E02B6
:1036F000853009F45BC10E94570AFCE1EF2EF2E02D
:10370000FF2E80E392E09CA78BA710E000E0302F13
:10371000EBA5FCA581919191A191B191FCA7EBA79B
:10372000F70141915191619171917F0148175907BA
:103730006A077B0709F481C1482759276A277B2735
:1037400020E0812C912C540183942A013B014820D4
:1037500059206A207B2045284628472809F465C15E
:1037600029A33AA388219921AA21BB2121E0892BF1
:103770008A2B8B2B09F420E02BA30E941E0681606C
:10378000782F9DA38CA349A15AA16BA18DA10E9462
:10379000CE18000F111F000F111FF801E45EFD4F3E
:1037A00080819181A281B38188259925AA25BB2595
:1037B00080839183A283B38386E0E4E1F2E0DE01BB
:1037C000119601900D928A95E1F7F0901602E09023
:1037D000170210911802009119021092160210920D
:1037E000170210921802109219028F2D8E2909F4D7
:1037F00048C080911202909113020E940F069C0112
:1038000090911102992309F4A6C223333105C8F11E
:103810009F3F19F09F5F90931102FF2059F00E9483
:1038200087059FEF1F140CF491E0899F802D1124D0
:1038300080931602EE2059F00E9487059FEF1E1418
:103840000CF491E0899F802D112480931702309110
:1038500016023323B1F020911702222391F045EB99
:103860003403C0011124992309F4FDC0909316027A
:1038700045EB240390011124332309F4F7C030935E
:103880001702812F802B09F448C080910F0290917C
:1038900010020E940F069C0190910E02992309F4D8
:1038A00055C225363105C8F19F3F19F09F5F9093AF
:1038B0000E02112359F00E9465059FEF11160CF4BA
:1038C00091E0899F802D112480931802002359F0E4
:1038D0000E9465059FEF10160CF491E0899F802DE2
:1038E000112480931902309118023323B1F02091F2
:1038F0001902222391F045EB3403C00111249923CE
:1039000009F4B7C09093180245EB240390011124E9
:10391000332309F4B1C030931902809116029091BB
:103920001702892B90911802892B90911902892BEB
:1039300011F00E942A0686E0FE013196A4E1B2E071
:1039400001900D928A95E1F70E94F20790911A0278
:10395000891721F00E94F20780931A0280915E027B
:10396000843009F0C3CE2092E9008091E80082FF04
:10397000BDCE8091E80090E085FF06C00E944C0318
:10398000882309F47CC091E08091E8008B778093D4
:10399000E800992309F4AACEE981E150E33108F067
:1039A000CBC0F0E0E856F04E0C940F1F80915E0201
:1039B000843021F110920D0280E428E130E00FB64E
:1039C000F894A895209360000FBE8093600083B7A1
:1039D000817F846083BF83B7816083BF789488953B
:1039E00083B78E7F83BF0FB6F894A895809160004F
:1039F000886180936000109260000FBE8091540235
:103A0000882309F473CE0E94570AE0E3F2E0819123
:103A10009191A191B191892B8A2B8B2B09F06AC1CD
:103A200032E0E434F30799F761CE2F5F880C991CDC
:103A3000AA1CBB1C233109F088CE0F5F1F4F053035
:103A4000110509F064CEDEA2DFA218A60E941E06B0
:103A50008160782F9AA789A74EA15FA168A58AA542
:103A60000E94CE18A9CEC092160202CFC0921702B1
:103A700008CFC092180248CFC09219024ECF00E280
:103A800010E0CE0101967C018091E80085FD0AC01E
:103A90008091E8008B778093E8000E944C03882394
:103AA00099F371CF8091F100F70181937F0101506B
:103AB000110951F768CF1A82F9E0FB83CE01019614
:103AC0000E94A70313CE8A81823009F436C1833065
:103AD000A1F0813089F52FB7F8946091440270917C
:103AE000450280914602909147022FBF0E94151F08
:103AF0006B837C838D839E83E1CFFE013196A0E3AF
:103B0000B2E04D915D916D917D91628353834483C9
:103B1000339622E0A434B207A1F7D0CF8A81823055
:103B200059F46B817C818D819E810E94151F85E2F5
:103B300090E00E943E1FC2CFD982C0CF4C816B81E2
:103B40008A810E94480B9827892798279E838D8316
:103B5000B5CFED80FE80FE24EF24FE248A810B8108
:103B600036E2039F800111244EEB849F000D111D4E
:103B700011248C8190E0880F991F080F191F6F2D59
:103B8000C80186960E943E1F6E2DC8018796D1CF30
:103B90000E94750D93CF80E18A8390CF1A8292EEB6
:103BA0009B838CCF0A811B81102701271027FE01E0
:103BB00031965F01EC809F012E0D311D7901C80106
:103BC000825E9C4FEA14FB0409F478CF023E110593
:103BD00050F40E94301FF50184830F5F1F4FFFEFE9
:103BE000AF1ABF0AECCFF5011482F7CF0A811B810F
:103BF0001027012710279E012F5F3F4F5901EC80AE
:103C0000E00EF12EF11CC801825E9C4FE016F10619
:103C100009F454CF023E110520F4F50164810E949D
:103C20003E1FFFEFAF1ABF0A0F5F1F4FECCF0E947E
:103C3000CB0D44CF3A8242CF0A811B811027012746
:103C400010279E012F5F3F4F7901AC80C9018A0D7B
:103C5000911D5C01C8018696AE14BF0409F42ECFF5
:103C6000083FE2E01E0750F40E94301FF7018483F2
:103C70000F5F1F4FFFEFEF1AFF0AECCFF70114821F
:103C8000F7CF0A811B811027012710279E012F5F84
:103C90003F4F5901EC80E00EF12EF11CC8018696D1
:103CA0000E151F0509F40ACF083F32E0130720F470
:103CB000F50164810E943E1FFFEFAF1ABF0A0F5F3C
:103CC0001F4FECCF80E00E94DB0D6FEF7FEF90E0A5
:103CD00080E00E945C1FF2CECE0101960E94A703F5
:103CE0002FEF31EE44E0215030404040E1F700C07A
:103CF0000000AFCC80E189BD92E199BD09B400FE1E
:103D0000FDCF8091D8008F7D8093D8008091E00016
:103D100082608093E0008091E00081FDFCCFE6CCE2
:103D200060E085E290E00E943E1F0E94750D0E94B7
:103D3000CB0D81E00E94DB0DACCC85E290E00E94CF
:103D4000301F1B821C821D828E83B8CE2D323140E3
:103D500008F0ACCDE2CD2D32314008F05BCD91CDF5
:103D600078941F921FB61F9211248F939F93AF9345
:103D7000BF938091440290914502A0914602B09178
:103D800047020196A11DB11D809344029093450204
:103D9000A0934602B0934702BF91AF919F918F913C
:103DA0001F901FBE1F9018951F921FB61F921124BF
:103DB0008F939F93AF93BF9380910D02811113C096
:103DC0008091440290914502A0914602B091470231
:103DD0004196A11DB11D8093440290934502A0938A
:103DE0004602B0934702BF91AF919F918F911F9070
:103DF0001FBE1F90189597FB072E16F4009407D04E
:103E000077FD09D00E941C1F07FC05D03EF4909559
:103E100081959F4F0895709561957F4F0895EE0F9E
:103E2000FF1F0590F491E02D0994692796276927D3
:103E30007827872778270895AA1BBB1B51E107C065
:103E4000AA1FBB1FA617B70710F0A61BB70B881F2A
:103E5000991F5A95A9F780959095BC01CD010895B9
:103E6000F999FECF92BD81BDF89A992780B5089542
:103E7000A8E1B0E042E050E00C94641F262FF999CD
:103E8000FECF92BD81BDF89A019700B4021639F0B9
:103E90001FBA20BD0FB6F894FA9AF99A0FBE08958A
:103EA0000396272F0E943F1F0E943E1F252F0E942E
:103EB0003F1F242F0C943F1F0196272F0E943F1F66
:103EC0000C943E1FDC01CB01FC01F999FECF06C02A
:103ED000F2BDE1BDF89A319600B40D9241505040C8
:103EE000B8F70895F894FFCF600D600D690D690D66
:103EF0006B0D690D690D690D600D600D700D690D1B
:103F0000690D700D460F6E0FC10F6E0FC10FA10F1F
:103F1000D90FC10FE110EE10FF13FF136E146E14D2
:103F2000C414DE1434143414E914BF15CE15CE15A0
:103F30005B1D631D8E1D9E1DA91DC81D9C1D9C1D06
:103F40009C1D621E6C1ECB1DCE1DD21DF61D171EA4
:063F50001A1E1C1E411E9A
:103F5600DF04F908D808D408D00801818283E2007A
:103F6600E900EA00B500B600B700CD008301CC0039
:103F76008A019201940121022302240225022602CB
:103F860027022A02B300B4006F007000F1F6F4F7BE
:103F9600F595939291906636353034979631333253
:103FA6009437C6674022814F012D01AC0039055276
:043FB600057205008B
:00000001FF
