:100000000C94E2030C9429040C9429040C94290404
:100010000C9429040C9429040C9429040C942904AC
:100020000C9429040C9429040C9406230C94C222E9
:100030000C942F2A0C9429040C9429040C94290460
:100040000C9429040C9429040C9429040C9429047C
:100050000C9429040C940B2A0C9429040C94290464
:100060000C9429040C9429040C9429040C9429045C
:100070000C9429040C9429040C9429040C9429044C
:100080000C9429040C9429040C9429040C9429043C
:100090000C9429040C9429040C9429040C9429042C
:1000A0000C9429040C9429040C94290405010902D8
:1000B000A10185020901A1000509190129081500FE
:1000C0002501950875018102050109300931158165
:1000D000257F95027508810609381581257F9501D0
:1000E00075088106050C0A38021581257F95017572
:1000F000088106C0C005010980A101850319012AF4
:10010000B700150126B700950175108100C0050CD8
:100110000901A101850419012AA002150126A002E6
:10012000950175108100C005010906A1018505052D
:100130000719E029E71500250195087501810205D9
:1001400007190029EF1500250195F07501810205B9
:10015000081901290595057501910295017503910D
:1001600001C00660FF0961A1010962150026FF00B8
:100170009520750881020963150026FF00952075FA
:10018000089102C005010906A101050719E029E748
:1001900015002501950875018102950175088101F9
:1001A0000507190029FF150026FF0095067508812F
:1001B000000508190129059505750191029501753C
:1001C000039101C0000101010101010101010202CD
:1001D00002020202020202030303030303030304F5
:1001E00004040404040405050505050606060606C0
:1001F000070707070708080808090909090A0A0A7A
:100200000B0B0B0C0C0C0D0D0D0E0E0E0F0F0F101B
:1002100010111111121213131414151516161717A5
:10022000181819191A1A1B1B1C1D1D1E1E1F202011
:10023000212222232424252626272829292A2B2C5B
:100240002D2D2E2F30313232333435363738393A7E
:100250003B3C3D3E3F404142434445464748494A76
:100260004C4D4E4F50515354555658595A5B5D5E44
:100270005F616264656668696B6C6D6F70727375DF
:1002800077787A7B7D7E8082838587888A8C8E8F43
:1002900091939596989A9C9EA0A2A3A5A7A9ABAD71
:1002A000AFB1B3B5B7BABCBEC0C2C4C6C9CBCDCF5F
:1002B000D1D4D6D8DBDDDFE2E4E7E9EBEEF0F3F50D
:1002C000F8FAFDFFFFAA7F55402223252628292A78
:1002D0002C2D2F3032333536383A3B3D3E404243A9
:1002E0004547494A4C4E5051535557595A5C5E60E8
:1002F00062646668696B6D6F71737577797B7D7FFA
:1003000081838587898A8C8E90929496989A9C9EF8
:100310009FA1A3A5A7A8AAACAEAFB1B3B4B6B8B914
:10032000BBBCBEBFC1C2C3C5C6C7C9CACBCCCDCE7C
:10033000D0D1D2D2D3D4D5D6D7D7D8D9D9DADADB5F
:10034000DBDBDCDCDCDCDCDDDDDDDDDCDCDCDCDCEB
:10035000DBDBDBDADAD9D9D8D7D7D6D5D4D3D2D22A
:10036000D1D0CECDCCCBCAC9C7C6C5C3C2C1BFBE12
:10037000BCBBB9B8B6B4B3B1AFAEACAAA8A7A5A37D
:10038000A19F9E9C9A98969492908E8C8A8987853C
:1003900083817F7D7B79777573716F6D6B6968661B
:1003A0006462605E5C5A5957555351504E4C4A49ED
:1003B00047454342403E3D3B3A3836353332302F95
:1003C0002D2C2A2928262523223A003B0029001E0D
:1003D000001F002000210022002300240025002609
:1003E0000027002D002E002A004A003C003D002B73
:1003F0000014001A000800150017001C0018000C5B
:1004000000120013002F00300031004B003E003F6F
:1004100000390004001600070009000A000B000D57
:10042000000E000F0033003400280000004E004092
:10043000004100E1001D001B00060019000500112D
:10044000001000360037003800E500000052004D73
:100450000042004300E000E300E200310000002C15
:1004600000000000000000E600E4005000350051EC
:10047000004F00000000000000000000000000002D
:10048000000000000000000000000000000000006C
:10049000000000000000000000000000000000005C
:1004A000000000000000000000000000000000004C
:1004B000000000000000000000000000000000003C
:1006900000000000007E0F00D4FFFFFFC700000035
:1006A0007800000000000000002A2B280000000055
:1006B0000000000000000000000000002900000011
:1006C000002C1E3420212224342627252E362D37B7
:1006D00038271E1F202122232425263333362E3788
:1006E000381F0405060708090A0B0C0D0E0F101120
:1006F00012131415161718191A1B1C1D2F3130232D
:100700002D350405060708090A0B0C0D0E0F1011F4
:1007100012131415161718191A1B1C1D2F313035FA
:100720004C1E0F0500047F3F1F643214643214789E
:100730003C1E1E140A0509025B00030100A0FA0911
:100740000400000103010100092111010001224000
:10075000000705810308000A0904010002030000E4
:100760000009211101000122220007058203200057
:100770000107050303200001090402000103000032
:100780000009211101000122B600070584032000A1
:100790000A12011001000000085A44101001000163
:1007A0000200010A0342004F004300430000000E14
:1007B0000344005A007400650063006800000004F0
:1007C0000309040011241FBECFEFDAE0DEBFCDBF66
:1007D00004B603FE27C080917E0390917F03A09111
:1007E0008003B09181038730904BA740B04BD1F488
:1007F00010927E0310927F03109280031092810367
:1008000014BE84B7877F84BF0FB6F894A8958091F3
:100810006000886180936000109260000FBEE0E08D
:10082000F8E3099523E0AEE9B1E001C01D92AE37CF
:10083000B207E1F711E0A0E0B1E0E2E2F8E502C0C2
:1008400005900D92AE39B107D9F70E94DD230C94C3
:10085000D82B0C940000E8EDF0E080818E7F80833F
:100860001092E2001092DA001092E100A0EEB0E0E7
:100870008C9181608C9380818F77808319BCA7EDE8
:10088000B0E08C918E7F8C9380818F7E80831092DC
:10089000480308952091E4003091E50095E6A90110
:1008A0002091EC00822F817020FF06C08091E8002B
:1008B00080FF06C080E008952091E80022FD1AC064
:1008C00080916D03882389F0853089F08091EB0059
:1008D00085FD0FC02091E4003091E50042175307D9
:1008E000F9F29150E1F684E0089582E0089583E002
:1008F000089581E00895EF92FF920F931F93CF9395
:100900007C018B010E944A04C82F811117C080917D
:10091000E80085FD0BC08091E8008E778093E800A9
:100920000E944A04882399F3C82F08C0F7018191D7
:100930007F018093F1000150110949F78C2FCF916D
:100940001F910F91FF90EF90089580916F0387FFA3
:1009500013C08091E80082FF06C08091E8008B7789
:100960008093E80004C080916D038111F2CF089557
:1009700080916D038823D9F38091E80080FFF8CF40
:100980008091E8008E77ECCF982F9093E900242F88
:10099000762F50E0891731F07091EC002091ED0036
:1009A0005091F00021FD07C09F5F973071F7809351
:1009B000E90081E008953091EB003E7F3093EB0039
:1009C0003091ED003D7F3093ED003091EB003160D0
:1009D0003093EB007093EC002093ED005093F00007
:1009E0002091EE0027FDE0CF80E00895CF92DF92C6
:1009F000EF92FF920F931F93CF93DF93C8EDD0E058
:100A000088818F7E8883E7EDF0E08081816080833C
:100A100084E082BF81E08093480388818E7F888351
:100A200002EE10E0F80110821092DA0081EEC82E7A
:100A3000D12CF601108288818F7788838881806825
:100A4000888388818F7D888319BC10926D031092F2
:100A50006E0310926C0310926B0390EEE92EF12C52
:100A6000F70180818B7F808388818160888342E069
:100A700060E080E00E94C404F60180818E7F808364
:100A8000F801808181608083808188608083F701A4
:100A900080818E7F8083888180618883DF91CF9180
:100AA0001F910F91FF90EF90DF90CF900895FC0180
:100AB000809175039091760386179707A0F06115D2
:100AC000710529F49091E8009E779093E80090E0FA
:100AD0006115710551F4911108C08091E80082FF01
:100AE00034C080E00895BC01F2CF80916D0388236B
:100AF000C1F18530C1F18091E80083FD30C0809163
:100B0000E80082FDEACF8091E80080FFE1CF80918C
:100B1000F3002091F200382F6115710519F028308B
:100B2000310558F091E02830310509F090E020912E
:100B3000E8002E772093E800CBCF81918093F100DD
:100B4000615071092F5F3F4FE7CF80916D0388237C
:100B500041F0853041F08091E80083FFBECF81E015
:100B6000089582E0089583E00895089580E008954F
:100B700080914A0308959C014FB7F89480914403F3
:100B800090914503A0914603B09147034FBF821B4C
:100B9000930B08952FB7F8948091440390914503E7
:100BA000A0914603B09147032FBF08958091DF02C3
:100BB00081111092DF0208958091DE029091DD0292
:100BC000892B9091DC02892B8093A0019091DF0208
:100BD0009923A1F0892B8093A00180911C01882387
:100BE00041F18091E40287FF24C08EE1E2EAF1E066
:100BF00090E0815000F591110E94D605E091FB0232
:100C0000F091FC023097E1F080911C01882359F0AB
:100C10008091E40287FF07C08091A0018093A10129
:100C200085E08093A0010280F381E02D80EA91E0CD
:100C3000099486E0DBCF21912223D9F29F5FD9CF9F
:100C4000089590911C019923D1F09091E40297FFAF
:100C500016C0E82FE695E695E695EE31E0F4F0E073
:100C6000E056FE4F282F277081E090E001C0880FEA
:100C70002A95EAF780959281892382830895E2EA92
:100C8000F1E09191891303C0DF0111971C9291E06B
:100C9000E83AF907B1F7089590911C019923C1F042
:100CA0009091E40297FF14C0E82FE695E695E6954B
:100CB000EE31F8F4F0E0E056FE4F877021E030E0CE
:100CC00001C0220F8A95EAF78281822B82830895E0
:100CD000A2EAB1E0EFEF90E02D91821751F0EF3FE3
:100CE00019F4211101C0E92F9F5F9630A9F7EF3F5A
:100CF00009F408950E2E000CFF0BE056FE4FE6CFD0
:100D000021E1929F800D1124982F977086958695EA
:100D1000869525E0829FF0011124EC55FD4F50E0AF
:100D200040E080E0219130E0092E02C03695279501
:100D30000A94E2F721703327042E01C0220F0A948F
:100D4000EAF7822B4F5F5F4F4530510559F7089501
:100D500021E1929F800D1124982F977041E001C0EE
:100D6000440F9A95EAF786958695869595E0899F32
:100D7000F0011124EC55FD4F90E080E070E05191BE
:100D8000DF0111979B01082E02C0369527950A9422
:100D9000E2F7217021952527242325272C930196FE
:100DA0008530910561F708958091A30290917202B8
:100DB000981301C008958F5F8770FACF882341F0A0
:100DC00080959091DE0289238093DE020C94DC05ED
:100DD0000895882339F09091DE02982B9093DE02DB
:100DE0000C94DC050895209168023091690228175F
:100DF000390771F09093690280936802E091FB02D9
:100E0000F091FC02309721F00084F185E02D0994E7
:100E1000089520916602309167022817390771F012
:100E20009093670280936602E091FB02F091FC02CE
:100E3000309721F00680F781E02D09940895E09124
:100E4000FB02F091FC02309721F00190F081E02D3F
:100E5000099480E00895CF92DF92EF92FF9286305E
:100E600030F5811125C090918000977F909380008C
:100E70002F98282F30E0AFEFBFEF0E94C92B25E05D
:100E800030E040E050E00E94A72BC9012C3764E11C
:100E90003607A0F469E070E00E94802A70938D000C
:100EA00060938C00FF90EF90DF90CF90089585E0E5
:100EB00090918000986090938000DBCF2A50374D4E
:100EC0004F4F5F4F942F832F722F662725EF38E205
:100ED00041E050E00E94A72B69017A01CA01B901E3
:100EE0000E94562A9B01AC01C701B6010E94562AF6
:100EF000672F782F892F99276115710521E08207C7
:100F0000910561F66FEF7FEFC9CF282F220F220FD7
:100F1000220F909128039770922B90932803987F2B
:100F200021E009F420E09091280320FB90F99093B0
:100F300028030C942B07FA01811101C0FB010994CD
:100F400080912B03982F9E7F29F48170826080937B
:100F50002B0308958635E8F381708465F8CFAF924E
:100F6000BF92DF92EF92FF920F931F93CF93DF9385
:100F7000082F162FE901E42FF0E0EC53FE4F61112A
:100F800010C0E4915E2F4E2F4983E8835A83DF918E
:100F9000CF911F910F91FF90EF90DF90BF90AF9096
:100FA0000895E62EF12C4491D42EE42FF0E026E0B3
:100FB000829FC00111242FEF30E0B9010E94802AE6
:100FC000802F90E0880F991F55E5569FD001579FBD
:100FD000B00D11248A1B9B0B982F990F890F590173
:100FE000AE18BF08AE9ED001AF9EB00DBE9EB00D34
:100FF00011245B2F189F80011124012F1127590103
:10100000A01AB10AAE9E8001AF9E100DBE9E100DBB
:1010100011245901A81AB108AE9CC001AF9C900DD3
:10102000BE9C900D1124892F9927281B390B2E9FC8
:10103000C0012F9F900D3E9F900D1124E92F62302B
:101040007105A1F050F46115710509F49DCF61306F
:10105000710581F0EB2F512F97CF6430710569F046
:1010600080F06630710509F48FCFF4CFE42F4B2F59
:10107000592F8ACFE42F412F87CFEB2F542F492FA1
:1010800083CF4B2F5D2DE12F7FCF0E94CA059C019E
:1010900090910E0380910F03982B21F030930B0356
:1010A00020930A039091100380911103982B21F053
:1010B0003093080320930703E091FB02F091FC02B8
:1010C000309749F082E080930C030480F581E02D95
:1010D0008CE093E00994089590E080E00E94090775
:1010E00090E080E00E94F3061092DD021092DC0294
:1010F0000E94DC0586E0ECE0F3E0DF011D928A95BA
:10110000E9F7109209031092060310926B020C94F7
:10111000450860937A0370937B0380937C039093DC
:101120007D030C946C080F931F9360917A03709168
:101130007B0380917C0390917D038B019C01067061
:10114000112722273327063011052105310529F4FF
:1011500068601F910F910C948908677FFACF0F93F5
:101160001F9341E050E060E070E004C0440F551F61
:10117000661F771F8A95D2F7CB01BA0160957095EB
:101180008095909500917A0310917B0320917C03C8
:1011900030917D0360237123822393231F910F914C
:1011A0000C9489089091DB02809589238093DB025F
:1011B000282F277039F4282F082E000C330B921794
:1011C000130621F49091E50292FF07C0859585955D
:1011D00085950E94AF081092DB0208950F931F932C
:1011E00041E050E060E070E004C0440F551F661F0E
:1011F000771F8A95D2F780917A0390917B03A09113
:101200007C03B0917D038A019B01082B192B2A2BAB
:101210003B2BC901B8011F910F910C948908609371
:10122000E0027093E1028093E2029093E3020C9457
:101230006C0840910E03803F59F480910F0387FFA3
:101240000DC010920F0341110BC01092090308C08A
:10125000813F81F480910F0318169CF3442381F0A1
:101260008091100390911103892B09F05AC01092BC
:1012700006030895823F49F447FFF0CF10920E0312
:1012800080910F038111ECCFE0CF833F19F4141646
:10129000ACF3E4CF90911003893F29F41916F4F6CA
:1012A00010921003DBCF8A3F19F497FFD7CFF8CF06
:1012B000909111038B3F29F497FFD0CF1092110327
:1012C000CDCF8C3F19F41916CCF3C8CF9CE0980F02
:1012D000953090F4845F990B21E030E0B90102C0B1
:1012E000660F771F8A95E2F7CB01809590910D03E9
:1012F000892380930D03B2CF8D3F31F480916B022F
:101300008E7F80936B02AACF8E3F21F480916B0277
:101310008D7FF7CF8F3F09F0A1CF80916B028B7F3C
:10132000F0CF0895882309F459C0823871F40E94DF
:101330001F0781FF53C089E30E944C060E94DC0511
:1013400089E30E9421060C94DC05833859F40E943D
:101350001F0780FF43C083E50E944C060E94DC0506
:1013600083E5EFCF843859F40E941F0782FF36C00F
:1013700087E40E944C060E94DC0587E4E2CF9CEFE4
:10138000980F913AF0F290E2980F983088F48770B5
:1013900021E030E0A90102C0440F551F8A95E2F711
:1013A000CA0180959091DE0289238093DE02CBCF23
:1013B0009BE5980F933020F490E080E00C940907AF
:1013C00098E5980F973120F490E080E00C94F306B4
:1013D000803F20F00E9419090C94450808958091DF
:1013E0006B0280FD16C081FD16C082FD16C0809183
:1013F00006038823A1F0883280F428E0829FC00190
:10140000112468E270E00E94942A862F672B39F03D
:10141000089582E0089584E0089588E0089581E0C9
:10142000089580916B0280FD14C081FD14C082FD7F
:1014300016C080910903882381F0843180F422E36F
:10144000829FC001112464E170E00E94942A862FDB
:1014500008958CE0089589E1089585E0089582E378
:101460000895803F31F40E94110A819580930F0303
:101470000895813F19F40E94110AF8CF823F31F498
:101480000E94110A819580930E030895833F19F4F9
:101490000E94110AF8CF893F29F40E94EF09809336
:1014A000100308958A3F21F40E94EF098195F7CF38
:1014B0008B3F31F40E94EF098195809311030895C9
:1014C0008C3F19F40E94EF09F8CF9CE0980F9530FB
:1014D00070F4845F990B21E030E001C0220F8A95FF
:1014E000EAF780910D03822B80930D0308958D3FC1
:1014F00031F480916B02816080936B0208958E3F7E
:1015000021F480916B028260F7CF8F3FB9F7809111
:101510006B028460F1CFF894E82FE295EF70F0E071
:1015200031A1282F2F7081E090E001C0880F2A950B
:10153000EAF7982F9095932391A392A1892B82A3E8
:10154000789408959091E40292FF06C0282F2871A4
:101550002830F9F4877F846093FF06C0282F287114
:101560002831F1F4877E84612091E50220FF06C0D6
:10157000382F38713830D9F4877F816021FF06C059
:10158000282F28712831D1F4877E816194FD877ED0
:101590000895282F24712430F9F68B7F8860DCCFE2
:1015A000282F2471243101F78B7E8861DDCF382FFD
:1015B0003171313019F78E7F8860E0CF282F21718B
:1015C000213121F78E7E8861E1CF81FD02C0769ABC
:1015D000089576980895CF9384E090E00E942D2B93
:1015E000C82F82E290E00E942D2B982F8C2FCF9154
:1015F00008950F931F93CF93DF93C42FD0E0CC0FA8
:10160000DD1F22E2629FC00DD11D11243AEA839FA3
:10161000C00DD11D1124CE0188960E942D2B082FBC
:1016200010E0102F0027CE0189960E942D2B9801E3
:10163000282BC901DF91CF911F910F910895462F5B
:10164000843038F4753028F4613118F4672F0C9425
:10165000F90A90E080E00895CF93DF930E941F0B7A
:10166000EC0182389105A9F1D8F58133910509F48F
:1016700096C048F58932910509F48AC08A9709F421
:1016800095C0C11521E5D20708F0BCC0C11530E5F1
:10169000D30708F014C1C83ED10508F09CC0C03E75
:1016A000D10560F5C83AD10508F087C0C53AD10523
:1016B00008F0FDC0C130D10509F12097F9F0C43020
:1016C000D105E0F440C08533910509F45AC0C997AB
:1016D000C1F68091E402837089F0C0EED0E00EC0C4
:1016E000833E910599F170F4803E910501F1823EAF
:1016F000910539F68091E40282FD21C0CE01DF918F
:10170000CF910895863E910561F1873E910571F173
:10171000843E910509F0B5CF8091E50281FFEECFBF
:101720008091E402C7EED0E084FD0DC0E7CF809148
:10173000E40280FD12C19091E50290FFDFCFC3EE7D
:10174000D0E084FFDBCFD0E0C0E0D8CF8091E402CE
:1017500082FD06C19091E50290FDBFCF84FFCECF00
:10176000F2CF8091E40283FDDDCFC8CF8091E40207
:1017700083FDF9C09091E50291FFF0CFC4EED0E077
:10178000BDCF8091E40285FFB9CFC9E2D0E0B6CFEA
:101790008091E40285FFB2CFC5E3D0E0AFCF809166
:1017A000E40286FFABCFCAE2D0E0A8CF8091E4028A
:1017B00086FFA4CFC1E3D0E0A1CFCF3BD10518F67F
:1017C000C85AD0E0CC0FDD1FC55BDE4F0990D88131
:1017D000C02DD46493CFC11540E2D40758F4C1158D
:1017E00081E0D80708F08ACFC03FD10508F4ABCF1D
:1017F000D06584CFC11590E4D90708F4A4CFDF7079
:10180000D06A7CCFC11525E5D20700F5C11534E5B6
:10181000D30708F08AC0C11543E5D40708F071C0AA
:10182000C11582E5D80708F467C0CE0183709927F7
:1018300021E030E002C0220F331F8A95E2F7C695FF
:10184000C69580E2C89FE001112452C0C11599E5F8
:10185000D907A8F4C11528E5D20708F06BC0C11557
:1018600036E5D30708F06FCF8C2F0E94A20AC82F4D
:10187000D0E0DC2FCC27CC27DF71D0623FCFC11561
:101880004AE5D40708F45BC0CE019056811590421A
:1018900008F059CF8D2F8F710E94A20A90E0982FE7
:1018A000882788279F719C012C2BE901E6CFC55A18
:1018B000D0E0C85BDE4FC881D0E0D0641FCFCE013E
:1018C000E4E096958795EA95E1F783702C2F2695AD
:1018D0002695237040E2249F90011124382B8C2FF1
:1018E0008370C1E0D0E002C0CC0FDD1F8A95E2F723
:1018F000C22BD32BDC6802CFDC2FCC27C16FD06A80
:10190000FDCECE018370992721E030E002C0220F86
:10191000331F8A95E2F7C695C69590E2C99FE0010C
:101920001124C22BD32BDA68E9CEDC2FCC27C46F6D
:10193000D06AE4CEDC2FCC27C06FD06ADFCE8C2FEC
:101940008F700E94A20A34E0D695C7953A95E1F7C8
:10195000CF709C2FEC01D069D1CEC9E3D0E0CECEC0
:10196000C2EED0E0CBCEC6EED0E0C8CEBF92CF92D2
:10197000DF92EF92FF920F931F93CF93DF938C012F
:10198000C0907A03D0907B03E0907C03F0907D03BD
:101990008091E0029091E102A091E202B091E30215
:1019A000C82AD92AEA2AFB2ACFE1D0E0BC2ED701E7
:1019B000C6010C2E04C0B695A795979587950A94F5
:1019C000D2F780FD0EC0219788F7B12C8B2DDF91C7
:1019D000CF911F910F91FF90EF90DF90CF90BF902C
:1019E0000895B8018C2F0E942C0B019761F3EECF64
:1019F000CF93DF93EC010E94B60CBE01DF91CF9133
:101A00000C942C0B0E94F80C292F2F7092959F702C
:101A100092509E3078F4E92FF0E0E652F44D0C94A9
:101A2000A82A803F19F020F4883E20F481E0089530
:101A3000843FE1F380E00895883EC0F3813FD1F711
:101A4000F5CF822F86958695869508956F927F9221
:101A50008F929F92AF92BF92CF92DF92EF92FF92BE
:101A60000F931F93CF93DF9389ECC82E83E0D82E7A
:101A700094EFE92EF12CE701CA5AD10936011BC0B7
:101A8000F50185909490692DC8010E94412B682D25
:101A9000C80101960E94412B82E0A80EB11C0E5F86
:101AA0001F4FC017D10761F782E2680E711CA29622
:101AB000CE15DF0529F08E01025211095301E0CF46
:101AC0007E018AEAE80EF11C8AEAC80ED11C8CE974
:101AD000E81683E0F80679F6DF91CF911F910F9118
:101AE000FF90EF90DF90CF90BF90AF909F908F903E
:101AF0007F906F900895CF93C091E502C2FB992724
:101B000090F9981781F080FBC2F9C093E5026091CB
:101B1000E40284E090E00E94412B6C2F82E290E08E
:101B2000CF910C94412BCF910895CF93DF93C0EDCB
:101B3000D2E060E0CE010E94412B2196C11584E0E5
:101B4000D807B9F7DF91CF910895682F86E090E02C
:101B50000C94412BCF93DF9300D00F92CDB7DEB71B
:101B600090916D03943011F589837B836A83909300
:101B7000E9008FEF9091E800815095FD06C095ED4A
:101B80009A95F1F700008111F5CF8091E80085FF6B
:101B90000DC050E040E063E070E0CE0101960E948D
:101BA0007B048091E8008E778093E8000F900F907F
:101BB0000F90DF91CF910895BC0184E00C94AA0DA1
:101BC000BC0183E00C94AA0D9C0184E08093E900A1
:101BD0009FEF8091E800915085FD06C085ED8A95C4
:101BE000F1F700009111F5CF8091E80085FF0CC05E
:101BF00050E040E066E070E0C9010E947B04809103
:101C0000E8008E778093E8000895CF93DF93EC018E
:101C100080911C018823B1F18091E40287FF32C0DA
:101C200060E284E08093E9008FEF9091E8008150BA
:101C300095FD06C095ED9A95F1F700008111F5CF5D
:101C40008091E80085FF1BC080911C0170E050E08E
:101C500040E0811104C050E040E068E070E0CE0157
:101C60000E947B048091E8008E778093E80080E2F8
:101C7000FE01ABE4B3E001900D928A95E1F7DF91AC
:101C8000CF91089568E081E0CDCF81E08093E000BE
:101C900080E28093D8001092C9008FE19EE4019702
:101CA000F1F700C0000087E090EBDC0180937E0339
:101CB00090937F03A0938003B093810388E19CE01D
:101CC0000FB6F894A895809360000FBE90936000C3
:101CD000FFCFCF93C82F882309F4AEC08238C1F458
:101CE0000E941F0781FDA8C089E30E944C060E9444
:101CF000DC052FEF81EE94E0215080409040E1F729
:101D000000C0000089E30E942106CF910C94DC05FD
:101D10008338A1F40E941F0780FD8EC083E50E94D6
:101D20004C060E94DC052FEF81EE94E021508040AC
:101D30009040E1F700C0000083E5E5CF8438A1F4CE
:101D40000E941F0782FD78C087E40E944C060E9413
:101D5000DC052FEF81EE94E0215080409040E1F7C8
:101D600000C0000087E4CFCF8CEF8C0F813A88F55C
:101D700080911C01882301F18091E40287FF1CC03F
:101D8000EC2FE695E695E695F0E0E056FE4F828171
:101D900090E04C2F477021E030E002C0220F331F4B
:101DA0004A95E2F782239323892B79F08C2F0E94A6
:101DB00021060E94DC0509C0E2EAF1E08191C81722
:101DC000A9F321E0E83AF207C9F78C2F0E944C06EC
:101DD0009CCF80E28C0F883068F4C77021E030E03F
:101DE00001C0220FCA95EAF78091DE02822B809310
:101DF000DE028BCFEBE5EC0FE33040F4F0E0E85B84
:101E0000FE4F808190E0CF910C940907E8E5EC0F3C
:101E1000E73150F4F0E0EE0FFF1FE55BFE4F8081ED
:101E20009181CF910C94F306C03F30F08C2F0E942B
:101E3000310ACF910C944508CF9108951F93CF9309
:101E4000DF93182FD0E0C0E0893311F4C0E5D0E073
:101E5000812F0E94690E209731F4812FDF91CF915D
:101E60001F910C9492098FE99FE00197F1F700C050
:101E700000002197F0CF0F931F93CF93DF93C62FCE
:101E8000D42F022FFC0182818823A1F06093790373
:101E90000E94CA059093780380937703C77081E00E
:101EA00001C0880FCA95EAF7DF91CF911F910F917A
:101EB0000C94E90680917903681335C0809177030B
:101EC000909178030E94BB05883C910560F510E273
:101ED0001D0FCD17B9F080E28C0F883040F4C77029
:101EE00081E001C0880FCA95EAF70E94DE0618302B
:101EF00048F481E09D2F977001C0880F9A95EAF70A
:101F00000E94E906802F0E941E0F183098F4D770A7
:101F100081E001C0880FDA95EAF7DF91CF911F9138
:101F20000F910C94DE06C77081E001C0880FCA953E
:101F3000EAF7F3CFDF91CF911F910F910895809130
:101F40002B0380FD0AC0E6ECF1E0118210821282C0
:101F5000339652E0E230F507C1F76A9A3EB13B7F13
:101F60002EB124604FB7F89486EC91E0FC015191BA
:101F7000CF0168E02EB9000000C057FF3EB9550FF1
:101F8000000000C000C000C03EB900C06A9591F7D3
:101F9000F2E082309F0751F74FBF8FE594E0019741
:101FA000F1F700C000000895EF92FF921F93CF93C6
:101FB000DF93EC0186ECE82E81E0F82E10E08C81B6
:101FC000970140912E0360912D03810F0E94AF076E
:101FD000145F83E0E80EF11C103F89F70E949F0F09
:101FE0009A818C8190FF08C08F5F8C83DF91CF91A5
:101FF0001F91FF90EF9008958150F7CFBF92CF923D
:10200000DF92EF92FF920F931F93CF93DF93FC0128
:102010008281DD24DA9480FD02C0DD24D39406ECB5
:1020200011E0D0E0C0E024E1B22EF801118210826C
:10203000128294E0E92EF12CC12C8091C3018C0D09
:1020400085310CF43DC06B2D0E94722A892F082E19
:10205000000C990B8C179D0791F480912E038E9D97
:10206000A0018F9D500D1124559547955595479585
:10207000980160912D0380912C030E94AF07CD0C35
:10208000F1E0EF1AF108C9F621960D5F1F4FC43138
:10209000D10559F60E949F0F8091C30191E0D9129A
:1020A00015C0811111C083E18093C301DF91CF91ED
:1020B0001F910F91FF90EF90DF90CF90BF90089508
:1020C00087FFC5CF8C5EC3CF8150EECF90E00196E5
:1020D000BE010E94942AE8CF0F931F93CF93DF9302
:1020E000C6ECD1E0FE01118210821282339682E0AA
:1020F000E230F807C1F710E000E08091C401082E3B
:10210000000C990B081719078CF180911001082E0B
:10211000000C990B801791074CF19E0140912E0302
:1021200060912D0380912C030E94AF070F5F1F4F1A
:1021300023960431110509F70E949F0F80910F012A
:102140009091C401980F9093C40120911001280F21
:1021500020931001121614F493311CF08195809392
:102160000F01DF91CF911F910F910895198218826D
:102170001A82DCCF8F929F92AF92BF92CF92DF9262
:10218000EF92FF920F931F93CF93DF93EC014C815B
:10219000042F10E09801D8010E94C92B9B01AC01CB
:1021A0000E94942B4B015C01E0E2F0E0E01BF10B9C
:1021B000A5E5B0E0AC019B010E94942B6B017C0172
:1021C0009F01DF010E94B52A9B01AC010E949F2B59
:1021D0009B01AC01280D391D4A1D5B1DC701B601CD
:1021E0000E94A72BF22E822F90E039E23F15D8F102
:1021F00043E0249F9001112435952795122F1095C7
:1022000096ECC92E91E0D92E00E085E5E82EEF1876
:102210008E2D01FD8F2D9601412F60912D030E947F
:10222000AF070F5F53E0C50ED11C043189F70E9440
:102230009F0F9C8181E0992319F0903219F48FEF60
:102240008093110180911101890F8C83DF91CF91CF
:102250001F910F91FF90EF90DF90CF90BF90AF90C4
:102260009F908F90089525E530E0A901481B590BF8
:10227000CA019A01220F331F280F391F37FFBCCF25
:102280002F5F3F4FB9CFEF92FF920F931F93CF93E2
:10229000DF938C01C6ECD1E0F12CE12CF8019481A4
:1022A00060912D0380912C03FAE0EF16F104FCF409
:1022B0009923F9F09E0140912E030E94AF072FEF62
:1022C000E21AF20A239684E1E816F10439F70E9433
:1022D0009F0FF801848190E0019681709927848393
:1022E000DF91CF911F910F91FF90EF900895992367
:1022F00009F39E0140E0E1CF90912B0390FF0CC0C9
:10230000E6ECF1E0818360834283339692E0E23031
:10231000F907C1F70C949F0F08950F931F93CF9364
:10232000DF9300D00F92CDB7DEB78C018091C5014D
:1023300081110AC09E012F5F3F4F4FEF6FEF0E9448
:10234000AF078A818093C501F8016481613069F02B
:102350008091C50140E0662361F040E0623011F4F5
:102360004091C50180E060E004C06091C50140E09B
:1023700080E00E947C11F801848190E0019663E086
:1023800070E00E94942A84830F900F900F90DF9149
:10239000CF911F910F910895CF93DF9300D00F92AB
:1023A000CDB7DEB790912B0390FF0AC09E012F5F3F
:1023B0003F4F0E94AF074B8169818A810E947C1147
:1023C0000F900F900F90DF91CF910895CF93DF93EF
:1023D000EC01EC81F0E0E753FD4F4491EBE2F3E0D8
:1023E000628181810E94CC118C818F5F8C83DF910F
:1023F000CF910895CF93DF93EC01EBE2F3E04381BB
:1024000062818C810E94CC118C818F5F8C83DF91E3
:10241000CF9108952F923F924F925F926F927F9249
:102420008F929F92AF92BF92DF92EF92FF920F93A3
:102430001F93CF93DF93C9E7D1E036EEE32E32E06E
:10244000F32E8701D12C22242394312C8991F894E6
:10245000E82FE295EF70F0E021A18F70410102C0FA
:10246000880C991C8A95E2F7C401922F982B91A3AE
:1024700092A18095892382A3789400C0AEE7B1E051
:1024800090E080E0412C512C32014D91E42FE295F7
:10249000EF70F0E020A130E04F7002C03595279535
:1024A0004A95E2F720FD5CC0812C912C5401839465
:1024B000082E04C0880C991CAA1CBB1C0A94D2F7D5
:1024C000B501A401442A552A662A772A019681314A
:1024D0009105D9F6FE01319780810E948B0A40EA6E
:1024E0004A95F1F7F80180819181A281B381481664
:1024F00059066A067B06C1F140825182628273826C
:1025000081E0D82A0C5F1F4FB1E0CE37DB0709F01E
:102510009DCFDD2059F181E08093C2010E94CA0560
:102520009093C1018093C0018091C0019091C1013D
:102530000E94BB050697F0F0E0E3F3E08AEF92E03B
:10254000D7014D915D916D917D917D0141935193A5
:10255000619371938A179B0799F71092C2010AC081
:1025600040E050E0BA01AECF80E0CBCF8091C20115
:102570008111DACF8D2DDF91CF911F910F91FF90B7
:10258000EF90DF90BF90AF909F908F907F906F9073
:102590005F904F903F902F9008954F925F926F926F
:1025A0007F928F929F92AF92BF92CF92DF92EF92E3
:1025B000FF920F931F93CF93DF93FC0162804480BF
:1025C00081E08483E9ECF2E07490E8E4F3E0E491E4
:1025D000C2E0D2E036ECE32E31E0F32E46E6C42E24
:1025E00042E0D42E52E0A52EBB24B39488248A94D2
:1025F000912C55245A94E7190E2F10E082E086158D
:1026000030F080912C03888380912D0389834110C1
:1026100021C01B821A8297014A81698188810E94A8
:10262000AF07259683E0E80EF11CCC16DD0631F7E6
:10263000DF91CF911F910F91FF90EF90DF90CF909E
:10264000BF90AF909F908F907F906F905F904F90D2
:102650000C949F0F8B818823E9F081508B83859D9B
:10266000C00111246C8170E00E94802AFB01FF27C9
:10267000E753FD4F8491E82FE719E59DC001112430
:10268000B8010E94802A80912E03689FB001112416
:102690007A83C1CF0E94102B20912E0326952158BA
:1026A0002A9DA0012B9D500D1124452F55278417DD
:1026B00095070CF0B0CF82E0861588F40E94102BAD
:1026C000B4010E94942A88830E94102B20912D032C
:1026D0002695622F70E00E94942A280F29831A827F
:1026E00080912E03893C20F088EC8C838B8393CFE0
:1026F0008431D8F784E1F9CF6AEE7EEF90E080E094
:102700000E945F2B60E082E090E00E94412B60E03D
:1027100083E090E00E94412B1092E0021092E102CF
:102720001092E2021092E30260E084E090E00E94E6
:10273000412B60E082E290E00E94412B60E085E066
:1027400090E00E94412B60E086E090E00E94412BE7
:102750006FEF87E090E00E94412B40E050E0BA012B
:1027600088E090E00E94532B60E08DE090E00E94B2
:10277000412B40E050E0BA0188E190E00E94532BE9
:1027800060E087E190E00E94412B40E050E0BA0118
:102790008CE190E00E94532B70E060E080E290E0DA
:1027A0000E945F2B40E050E0BA0188E190E00E9477
:1027B000532B40E050E0BA018FE090E00E94532B91
:1027C00040E050E0BA0183E190E00C94532B90E09C
:1027D00080E00E943B2B8A3E9E4F51F00E947C136A
:1027E0008091280384708962809328030E94A50D3C
:1027F00086E090E00E942D2B80932803803320F008
:10280000877088628093280390912803892F8170B4
:1028100090FF04C0892F8695869586950C942B078A
:10282000CF92DF92EF92FF926B017C010E94A00792
:10283000B701A60188E090E0FF90EF90DF90CF9085
:102840000C94532B5F926F927F928F929F92AF92D4
:10285000BF92CF92DF92EF92FF920F931F93CF938D
:10286000DF9300D00F92CDB7DEB7182F762E042F4E
:10287000622E90912B0390FF29C0E92FE695AE2F91
:10288000B0E0A35EBE4F8C91809329039E7F92306F
:1028900081F59E012F5F3F4F812F0E94AF074B8133
:1028A00069818A810E947C1110932C0370922D0300
:1028B00000932E03662051F060912B0370912C033E
:1028C00080912D0390912E030E9410140F900F9071
:1028D0000F90DF91CF911F910F91FF90EF90DF90BC
:1028E000CF90BF90AF909F908F907F906F905F90B0
:1028F0000895823019F400912E03D6CF863019F452
:1029000010912C03D1CF8930D9F3893169F6E9517F
:102910008E2F8170582EE695F0E0EC53FD4FA59078
:10292000B490BB2486ECE82E81E0F82ED12CC12C8B
:1029300094E1892E912CC601B4010E94802A812F36
:10294000511013C0860F9701402F672D0E94AF07CB
:10295000CA0CDB1C83E0E80EF11C82E0E81682E082
:10296000F80649F70E949F0F9FCF861BECCFEBE242
:10297000F3E0438128E0421B08F440E021E062815B
:1029800081810C942214EBE2F3E0438128E0420FB2
:1029900008F44FEF21E0628181810C942214EBE274
:1029A000F3E0628128E0621B08F460E021E04381EB
:1029B00081810C942214EBE2F3E0628128E0620F43
:1029C00008F46FEF21E0438181810C942214EBE243
:1029D000F3E0818121E04381628188500C942214CC
:1029E000EBE2F3E0818121E043816281885F0C9416
:1029F000221480912F03882319F0815080932F0394
:102A000060912B0370912C0380912D0390912E03E4
:102A10000C94101480912F03833018F48F5F8093EF
:102A20002F0360912B0370912C0380912D039091C3
:102A30002E030C941014EBE2F3E083E08083118208
:102A40008FEF82838383148260817181828193817D
:102A50000C9410141092DE0280911C01E2EAF1E065
:102A6000882359F08091E40287FF07C08EE1DF01DF
:102A70001D928A95E9F70C946C0886E0F8CF1F93B5
:102A8000CF93DF93CDB7DEB7AA970FB6F894DEBF2A
:102A90000FBECDBF8FE693E02091F100DC012D93B6
:102AA000CD01B3E087379B07B9F78091700383307E
:102AB00009F471C0B8F4813009F448C0823009F4D7
:102AC000B2C08091E80083FF3AC180916F0390917A
:102AD00070039A3008F033C1E92FF0E0E851F44D6B
:102AE0000C94A82A8A3009F48DC08B3009F470C088
:102AF000893039F780916F03813219F78091730320
:102B000090917403009711F00297D9F68091E80034
:102B1000877F8093E8008091E80082FF37C0909122
:102B2000F3008091F200029729F48091F1008B7FED
:102B3000813021F48091F10080934A038091E80074
:102B40008B778093E8000E94A504BBCF80916F0330
:102B5000813A09F0B6CF8091E800877F8093E80042
:102B60008091730390917403892B61F460E28BE48C
:102B700093E070E00E9457058091E8008B77809386
:102B8000E8009FCF60E090E080E0F3CF80916D039C
:102B90008111C1CF96CF80916F03813A09F091CF17
:102BA0008091730390917403892B09F08ACF8091EF
:102BB000E800877F8093E8008091E80080FFFCCFE9
:102BC00080911C018093F1008091E8008E77B9CF4D
:102BD00080916F03813209F074CF809173039091DB
:102BE0007403892B09F06DCF8091E800877F809373
:102BF000E8000E94A5048091710380931C010E944B
:102C00002A155FCF80916F03813209F05ACF8091EE
:102C1000E800877F8093E8000E94A50480917203FA
:102C2000809349034ECF80916F03813A09F049CFD9
:102C30008091E800877F8093E8008091E80080FF22
:102C4000FCCF80914903BECF803899F0823809F0DB
:102C500076C0809173038F70873008F070C08093C6
:102C6000E9008091EB0085FB882780F91092E9004C
:102C700006C080916B0390916C03911182609091DA
:102C8000E800977F9093E8008093F1001092F100A4
:102C90008091E8008E77B5C1882309F4A2C1823003
:102CA00009F04DC0809171038111A6C18091730319
:102CB0008F702FEF280F263008F041C08093E90075
:102CC0002091EB0020FF98C1933031F48091EB000C
:102CD00080628093EB0090C19091EB0090619093A3
:102CE000EB0021E030E001C0220F8A95EAF7209343
:102CF000EA001092EA008091EB008860EACF81112F
:102D00001EC0109171031F778091E3008078812BA2
:102D10008093E3008091E800877F8093E8000E9421
:102D2000A5048091E80080FFFCCF8091E3008068DB
:102D30008093E30082E0111183E080936D03809122
:102D4000E80083FF0AC08091E800877F8093E80055
:102D50008091EB0080628093EB00AA960FB6F89406
:102D6000DEBF0FBECDBFDF91CF911F910895805878
:102D7000823028F720917103309172032C3DE3E0FB
:102D80003E07A1F583E08A838AE289834FB7F894EE
:102D9000DE01139620E03EE051E2E32FF0E0509395
:102DA0005700E49120FF03C0E295EF703F5FEF70A2
:102DB0008E2F90E0EA30C0F0C7968D939D932F5FE1
:102DC000243159F74FBF8091E800877F8093E80056
:102DD0006AE270E0CE0101960E9457058091E800FA
:102DE0008B778093E800ABCFC096E7CF80917303D9
:102DF00090917403432F55274330510509F44AC07D
:102E000078F54130510509F47AC08BE590E0E6E3AE
:102E1000F7E04230510509F092CF2091E800277F7A
:102E20002093E80020917503309176038217930771
:102E300008F49C0140E02115310509F065C04111FD
:102E400063C08091E80082FDC9CF80916D03882323
:102E500029F2853019F28091E80083FFF2CFBECFCE
:102E60004132510509F43CC04232510509F067CFA7
:102E70008330910508F063CFFC01EE0FFF1FEE5683
:102E8000FE4F0190F081E02D81579E4FDC018C9127
:102E900090E01AC0332721303105D1F021153105DA
:102EA00061F02230310509F04ACFE3EAF7E0E4911E
:102EB0008E2F90E0E3EAF7E007C0EFEBF7E0E49154
:102EC0008E2F90E0EFEBF7E0009709F438CFA5CF15
:102ED000EFEAF7E0E4918E2F90E0EFEAF7E0F4CF2D
:102EE0008330910508F02BCF880F991FFC01E8561D
:102EF000FE4F0190F081E02D89E090E08ECF82E1DD
:102F000090E0E1E9F7E089CF80916D03882309F42F
:102F100065CF853009F462CF8091E80083FD5ECFF4
:102F20008091E80082FD8DCF8091E80080FF83CF03
:102F30009091F3008091F2002115310519F088304D
:102F4000910550F041E0089709F040E08091E800D9
:102F50008E778093E8006FCF44914093F1003196D3
:102F6000215031090196E8CF803809F0E8CE8091F0
:102F7000E800877F8093E80080916E038093F100E2
:102F800087CE8111DCCE10917103123008F0D7CEBC
:102F90008091E800877F8093E80010936E030E9481
:102FA000A504112311F084E005C08091E30087FDA2
:102FB000FACF81E080936D0342E061EC81E00E94F2
:102FC000C40442E261EC84E00E94C40442E261EC89
:102FD00082E00E94C40442E260EC83E00E94C404E8
:102FE000AECE80917103813009F0A9CE81E093309B
:102FF00009F080E080936C031092E9008091E80072
:10300000877F8093E8000E94A50499CE60912B03EE
:10301000669570E04BE050E084E091E00E94202B48
:10302000892B19F481E080932A030E94CA059093AA
:10303000010380930003089590912B0390FF36C005
:103040009170811129C0926090932B03662351F0F7
:1030500060912B0370912C0380912D0390912E038E
:103060000E94101460912B03669570E04BE050E0D5
:1030700084E091E00E94202B892BA9F010922A0372
:1030800081E08093030320E040912E0360912D03A3
:1030900080912C030C9422148B3210F09465D4CFC1
:1030A000880F982BD1CF0E940618EACF08958091FF
:1030B0002B038695815009F48AE261E00C941C1878
:1030C00080912B0386958F5F8B3208F081E061E061
:1030D0000C941C1890912B0390FF07C0969598179D
:1030E00020F0961710F40C94601861E00C941C18F2
:1030F0003F924F925F926F927F928F929F92AF9288
:10310000BF92CF92DF92EF92FF920F931F93CF93D4
:10311000DF9300D000D00F92CDB7DEB78C01FC0159
:1031200083819481892B31F08081918189238F3F24
:1031300009F047C60F900F900F900F900F90DF91FE
:10314000CF911F910F91FF90EF90DF90CF90BF90A4
:10315000AF909F908F907F906F905F904F903F9037
:1031600008950E94B60CF82E682F89819A810E94DA
:10317000A80669817A818F2D0E941F0B7C01F801BE
:103180008281882309F4EAC5C70182519F4540978F
:1031900008F0A2C58FEF93E00E942D2BFEEEEF0EFC
:1031A00050ED852E52E0952E882381F18091DB022F
:1031B000877009F4BFCFF8018281882309F4BACF60
:1031C00082E00F900F900F900F900F90DF91CF91B2
:1031D0001F910F91FF90EF90DF90CF90BF90AF9035
:1031E0009F908F907F906F905F904F903F900C9446
:1031F000D208811424E09206C9F2C4010E942D2B4A
:10320000811101C0EA943FEF831A930AE110F1CFD4
:103210001C821B82442443944AE0342E74018FEFB5
:10322000E81AF80AC4010E942D2B89831A82882388
:1032300009F4BCCF9FEF980F933000F58A83498241
:1032400092E0890E911CC7010E942D2B8B8388234D
:1032500009F4ACCFFE0131967F01F70120812223D2
:10326000E9F2213009F049C091818281913041F425
:10327000F2E0EF0EF11C0E941E0F09C04701EACFD9
:10328000923049F422E0E20EF11C0E94690E3FEFF9
:10329000E31AF30AE2CF933031F432E0E30EF11C8B
:1032A0000E949209F4CF943021F08FEFE81AF80AC7
:1032B000EECF92E0E90EF11C30E020E0B7016F5F45
:1032C0007F4FF70141818053990B8A30910550F06F
:1032D00021503109E0F28FE99FE00197F1F700C03A
:1032E0000000F6CF329EF001339EF00D11249C01B8
:1032F0002E0F3F1F842F7B01E1CFE22FF0E0EF552F
:10330000F94F5490822F86958695869590E0FC0122
:10331000EF56F94F64902770712C022E02C07594FD
:1033200067940A94E2F7E1E06E227724FC01EF57FC
:10333000F94FA490B12C022E02C0B594A7940A9420
:10334000E2F7F1E0AF22BB24FC01EF58F94FC49043
:10335000D12C02C0D594C7942A95E2F721E0C2226D
:10336000DD246114710419F081EE0E94690EA1142C
:10337000B10419F086EE0E94690E852D0E941E0F81
:10338000AB2819F086EE0E949209672819F081EEA9
:103390000E949209CD2809F47ACF8CE26CCF81E0AB
:1033A0000E94EE080E94930801CF81E00E94AF08BE
:1033B000F9CF82E0F5CF82E0F9CF2FEBE2162CE5D2
:1033C000F20609F44BC0A0F180ECE8168CE5F80693
:1033D00009F0A3C490912803892F86958695869538
:1033E0008F5F8F719770863008F059C0880F880FF3
:1033F000880F892B809328038091280310C085E0D3
:103400000E948507809128030E94A50DCFCE809150
:103410002803982F987FE9F1885080932803887FAC
:1034200091E009F490E08091280390FB80F913C0AB
:1034300080912803982F969596959695953040F40F
:103440009F5F990F990F990F8770892B809328039D
:103450008091280381608093280319C080912803FC
:1034600080FF09C08E7F809328030E94A50D80E015
:103470000E942B079BCE80FD99CE8160809328030C
:10348000813019F489E080932803809128030E94F9
:10349000A50D80912803869586958695E9CF909312
:1034A0002803AACF27E245EE65EE54C426E241EE9A
:1034B00060EE50C427E245EE64EE4CC426E241EED5
:1034C00062EE48C428E241E0EFCF8091E4028061DF
:1034D00036E0E3163CE5F30609F492C008F497C021
:1034E0008091E40280628CC08091E4028D7F9CE038
:1034F000E9169CE5F90609F483C078F48091E402AA
:103500008C60FAE0EF16FCE5FF0609F479C008F4D8
:103510008AC08091E4028E7F73C08091E402877F2D
:103520003EE0E3163CE5F30609F46AC008F481C006
:103530008091E4028F7E64C09BEFE9169CE5F9065A
:1035400009F469C068F5F3E1EF16FCE5FF0609F43C
:1035500080C090F431E1E3163CE5F30609F475C050
:1035600082E1E8168CE5F80609F07AC50E942A1572
:103570008091E4028F7744C095E1E9169CE5F90655
:1035800009F46FC008F483C08091E5028160FAEF0E
:10359000EF16FCE5FF0609F063C58093E50260C500
:1035A0002FEFE2162CE5F20609F457C090F48DEFE8
:1035B000E8168CE5F80609F440C08091E5028E7F9C
:1035C0009EEFE9169CE5F90640F38091E5028360E1
:1035D000E4CFE1E0EE16EDE5FE0609F461C008F483
:1035E0004CC060E022E0E2162DE5F20609F038C595
:1035F0008EE090E00E94412B33C58091E40281600F
:103600008093E4022DC58091E4028460F9CF80911B
:10361000E4028860F5CF8091E5028260BECF8091A0
:10362000E4028064EDCF0E942A158091E402806854
:10363000E7CF8091E4028B7FE3CF8091E5028D7F1D
:10364000ACCF8091E4028F7DDBCF8091E4028F7B51
:10365000D7CF8091E402837FD3CF8091E5028C7F26
:103660009CCF8091E40282FB992790F921E0922778
:1036700090FB82F990FB83F9C3CF8091E502982FEC
:10368000909591708E7F892B90FB81F986CF0E9457
:103690002A159091E402892F97FB87F98058B0CFC3
:1036A00061E0A6CF8091DE0236E1E3163CE5F30649
:1036B00009F098C38A7A91E009F490E090936A0245
:1036C000811106C089E20E944C060E94DC056ECD85
:1036D00085E3F9CF85E372C380912B0380FF1BC084
:1036E0008E7F80932B0360912B0370912C0380912C
:1036F0002D0390912E030E94101410922A038FEF35
:1037000090E7E2E081509040E040E1F700C0000027
:103710000E949F0F4BCD816080932B0361E08695C3
:103720000E941C1843CD47E558E160E678E10E940D
:103730009B073CCD40E658E167E578E1F8CF40EFE4
:1037400054E167EE74E1F3CF4FEC54E16BED74E1BB
:10375000EECF47EB54E163EC74E1E9CF43EC54E185
:1037600067EB74E1E4CF4AE055E169EF74E1DFCF44
:1037700061E081E0D5CF65E082E00E946A1816CD55
:1037800068E086E0FACF64E18FE0F7CF67E185E19A
:10379000F4CF62E289E1F1CF61E083E2C1CF9BE542
:1037A000E9169DE5F90611F1ECE5EE16EDE5FE06EC
:1037B00009F04AC38091E50282FB882780F991E0F5
:1037C00089270E947B0D40C30E942A15FFEF24E346
:1037D0003CE0F15020403040E1F700C000000E9482
:1037E000450E0E947C13E2CC81E0EBCF80E0E9CF74
:1037F000C7010E948006D82E36C32F2D2F70A22E0F
:103800008F2D807F19F0A29490EFA922DD20C9F0BE
:10381000AA2069F080E28E0D883010F081100BC074
:103820008091DE02A82AA092DE020E94DC058E2D85
:103830000E94690E19C08091DD02A82AA092DD02C3
:10384000F4CF8E2D0E949209AA2071F0A09480E2FC
:103850008E0D883010F081103FC08091DE02A822CA
:10386000A092DE020E94DC05232D2850330B243069
:10387000310520F40E941F070E94E50ACC2009F4BC
:1038800059CC8091DB0280FD55CCF80112828595E0
:10389000859585950E94EE08C8010E947818809150
:1038A000DB028595859585950F900F900F900F9071
:1038B0000F90DF91CF911F910F91FF90EF90DF90CC
:1038C000CF90BF90AF909F908F907F906F905F90C0
:1038D0004F903F900C94AF088091DD02A822A092F7
:1038E000DD02C0CF3F2D3F70932E8F2D807F803221
:1038F00019F0929480EF9822882071F081E0881668
:1039000081F1DD20D9F1AA2091F1F801858180FFB4
:103910008ECF8F7085832BC0DD20B1F09091DF02B8
:10392000892D892BA11003C00E94E9069DCFE1E0FB
:10393000AE12FACF2091E50222FD96CF981709F436
:1039400093CF8093DF0290CFA11006C00E94D605CE
:10395000892D0E94DE0688CFF1E0AF1609F484CFEE
:10396000F5CFDD2031F025E02A1508F47DCF892D33
:10397000DBCF34E03A1508F477CFEACFAA2041F341
:10398000F9E38F1209C02FEF37EE83E0215030406A
:103990008040E1F700C000008E2D0E94920964CFA4
:1039A0008F2D86958695837061F0813009F05CCF0C
:1039B000C7019370D11002C090E080E00E94F3062E
:1039C00053CFC7019370D11002C090E080E00E94F5
:1039D00009074ACF8E2DDD2029F00E94310A0E946E
:1039E000450842CF0E941909FACF8F2D837009F044
:1039F00066C0D11039CF8E2D829586958770880F3D
:103A0000880F6E2D6F70462E512C712C612C082E54
:103A100004C0440C551C661C771C0A94D2F740E085
:103A200050E0BA01E4FE0FC04FE050E060E070E00B
:103A300004C0440F551F661F771F8A95D2F7409523
:103A40005095609570958F2D869586958370823000
:103A500019F1D8F48090E0029090E102A090E20287
:103A6000B090E302813069F044295529662977290D
:103A7000CB01BA01682179218A219B210E940F097B
:103A8000F3CE482859286A287B28CB01BA0164293B
:103A9000752986299729F2CF44295529662977293E
:103AA0004090E0025090E1026090E2027090E302E8
:103AB000CB01BA016425752586259725DFCF86952C
:103AC000DD2011F08F2D8170882309F4CDCE8E2D4D
:103AD000829586958770880F880F6E2D6F70462EA1
:103AE000512C712C612C082E04C0440C551C661CF2
:103AF000771C0A94D2F740E050E0BA01E4FE0FC010
:103B00004FE050E060E070E004C0440F551F661FB6
:103B1000771F8A95D2F740955095609570958F2DB7
:103B2000869586958370823019F1D8F480907A0357
:103B300090907B03A0907C03B0907D03813069F06E
:103B40004429552966297729CB01BA0168217921B1
:103B50008A219B210E94890887CE482859286A28F3
:103B60007B28CB01BA016429752986299729F2CFD0
:103B7000442955296629772940907A0350907B0380
:103B800060907C0370907D03CB01BA01642575259C
:103B900086259725DFCF9F2D9F70F92EDD2029F0F8
:103BA000892F0E94EE088E2DBFCE8E2D0E94DE063C
:103BB0008F2D0E94AF0858CE8E2DE2EF8E1609F49D
:103BC00057C0E81578F0F0EF8F1649F121EF821613
:103BD00009F446C0DD2009F46FC0A11028CE8F2D56
:103BE0008F7143C033EF831609F447C094EF8912F5
:103BF000F1CFDD2009F455C02F2D2F71F22E822F29
:103C00000E94EE088091E50282FD07C038E0F39E35
:103C1000C001112483608093DB028F2D26C0DD203C
:103C2000D1F0E4E0EA1508F41FCE2F2D2F7161E0EA
:103C300070E080E090E004C0660F771F881F991F36
:103C40002A95D2F740907A0350907B0360907C03D2
:103C500070907D039BCFF5E0FA1508F405CEE5CF13
:103C60008F2D8F71DD2009F4A4CF0E94EE08FCCDCA
:103C70008F2D8F71DD20C9F39CCF60E070E0CB0108
:103C8000DD2009F467CF2F2D2F7161E070E080E017
:103C900090E004C0660F771F881F991F2A95D2F7FE
:103CA00059CF81E00E94D20881E08A1508F0DCCD6E
:103CB00082E00E94D208D8CDAA2059F0893309F0B9
:103CC0006BCE9FEFE7EEF3E09150E040F040E1F77C
:103CD00061CE8F2D8F716DCFF0E1EF16FFE5FF06FE
:103CE00009F45DCB21E1E2162FE5F20609F461CB80
:103CF0008DEBE8168CE5F80609F489CB08F05DCB6E
:103D0000EBEBEE16ECE5FE0609F479CB80E0FCEB7C
:103D1000EF16FCE5FF0609F473CB23EFE2162CE562
:103D2000F20609F4C3CB08F04DC188EDE8168CE526
:103D3000F80609F4B7CB99EDE9169CE5F90609F404
:103D4000C1CBE7EDEE16ECE5FE0609F049C126E22F
:103D500041EE61EEC8010E943B0F28CA30E1E31634
:103D60003FE5F30609F421CB81E1E8168FE5F8067B
:103D700009F421CB83EFE8168CE5F80609F496CB1D
:103D800008F07EC1E8EDEE16ECE5FE0609F48ACBFC
:103D9000F9EDEF16FCE5FF0609F494CB27EDE216EA
:103DA0002CE5F206A1F2F6E1EF16FCE5FF0609F0BC
:103DB0004BC080916A0281118DCC89E20E9421065C
:103DC00084CC85E0DE01119601900D928A95E1F791
:103DD000F801228189819A812111C3C90E9480063C
:103DE000F82EC7C982722CECE2162CE5F20609F413
:103DF000BACC08F0A5C096ECE9169CE5F90609F4E2
:103E00009ECC08F074C0F3ECEF16FCE5FF0609F455
:103E10008ACC08F05BC032ECE3163CE5F30609F40B
:103E20005BCCFAE5EF16FDE5FF0609F4DDCC08F002
:103E3000B6CCE1143CE5F30609F4C6CC8EEDE816E9
:103E40008CE5F80609F4CDCCF8018281E080F180A0
:103E5000882309F4CDCCC7010E94B60CD82E682F58
:103E6000C7010E94A806B7018D2D0E942C0B7C0172
:103E7000882EF801D280A580A2943FE0A3228091F1
:103E8000DB028770A1F0CD2CDD2091F08F2D807F9B
:103E9000803421F080E28E0D883048F082E00E946C
:103EA000D2088091DB028770CC24C3948111C12C8D
:103EB0003F2C32942FE03222FBE0F31508F4D4CCEF
:103EC000E32DF0E0EE50F44D0C94A82A94ECE916A2
:103ED0009CE5F90609F42ECC47EE54E160EF74E15D
:103EE000E5ECEE16ECE5FE0609F421CC9ACFF9ECF0
:103EF000EF16FCE5FF0609F42CCC88F437ECE3164A
:103F00003CE5F30609F420CC4BED54E16FEC74E191
:103F100098ECE9169CE5F90609F409CC82CFEAECA5
:103F2000EE16ECE5FE0609F419CC49EF54E16AE01F
:103F300075E1FBECEF16FCE5FF0609F4F8CB71CF59
:103F400021EDE2162CE5F20609F41DCCB8F48EEC56
:103F5000E8168CE5F80609F40ECC08F409CCEFEC71
:103F6000EE16ECE5FE0609F40BCC6EE089E0F0ED10
:103F7000EF16FCE5FF0609F400CC53CF24EDE21662
:103F80002CE5F20609F405CC78F482EDE8168CE510
:103F9000F80609F4FBCB61E088E193EDE9169CE5B6
:103FA000F90609F4BDCB3DCFE5EDEE16ECE5FE06D6
:103FB00009F4F2CB6AE285E2FDE5EF16FF0609F4AB
:103FC000DCCB2FCFF5EFEF16FCE5FF0609F476CA40
:103FD00008F470CA36EFE3163CE5F30609F45EC058
:103FE0001092790392E0E9169CE5F90608F45ACBA1
:103FF000E6E1EE16ECE5FE0630F0C7018A5F9C456F
:10400000099708F04FCB0E94EB0A9093E50280934A
:10401000E402F0E1EF16FCE5FF0609F412CB08F02C
:104020008BCA38E0E3163CE5F30609F4F8CA08F059
:104030005BCA94E0E9169CE5F90609F4E4CA08F0C5
:1040400044CAF2E0EF16FCE5FF0609F4D6CA8091F7
:10405000E402826023E0E2162CE5F20609F4D0CAFD
:104060006091E402F090E50284E090E00E94412B30
:104070006F2D82E290E00E94412B0E942A1596C883
:1040800035EFE3163CE5F30609F418CA08F412CA42
:1040900096EFE9169CE5F90609F085CE27E245EE94
:1040A00066EE58CE1F93CF93DF9380917102807F8D
:1040B000A9F480916E02882389F08091A302D091A7
:1040C000720260916C0270916D02A0916F02B091CA
:1040D0007002C62FC72316E0D81304C0DF91CF911A
:1040E0001F91089590E0109711F0CF3F19F40196B9
:1040F0008770F2CF189F9001199F300D1124F9019C
:10410000ED58FD4F41814713F2CF40814613EFCF69
:1041100042814111ECCF438154814A1B5B0B483CE7
:10412000510528F7809171028F7080618093710230
:10413000F901E858FD4F80818F70806180838CE6A3
:1041400092E00E947818DF91CF911F910C94D406D1
:10415000AF92BF92CF92DF92EF92FF920F931F9395
:10416000CF93DF93CDB7DEB761970FB6F894DEBF7C
:104170000FBECDBF8C0185E0F801DE011D960190D8
:104180000D928A95E1F7F80180819181E2802CE619
:10419000A22E22E0B22E60916F0270917002611522
:1041A000710509F43EC130916C0240916D02232FDC
:1041B00024232F3F09F435C1C380D480F0906E02D0
:1041C000F601E61BF70BFF2009F4FBC020917102FA
:1041D000522F507FE83CF10508F0BBC0511178C068
:1041E000FE2C491321C038131FC0E1101DC02F70D1
:1041F000206120937102C5010E947818809171029C
:10420000F80185838F2D61960FB6F894DEBF0FBE3F
:10421000CDBFDF91CF911F910F91FF90EF90DF9075
:10422000CF90BF90AF900895CD2829F0282F292353
:104230002F3F09F014C120E0F22FF170DF2E20FF94
:104240003DC02091A3024091720256E0241315C094
:104250008D879E878D859E850E94F80C292F22953B
:104260002F702230F8F0243020F59F70F9F0F8011B
:104270009581907FD9F4D12C1FC030E0529FF0017E
:10428000539FF00D1124ED58FD4F6181961306C028
:104290006081861303C06281E61210C02F5F3F4F1A
:1042A0002770D4CF9F7011F0882329F3805E883067
:1042B00010F3C8010E947818FD2CA4CFEE2009F459
:1042C000A1CF80917102816080937102F12C9ACF0D
:1042D000491312C0381310C0E1100EC0F801258335
:1042E000C8010E94781886E0F801ACE6B2E00190BF
:1042F0000D928A95E1F786CF8D879E878D859E8565
:104300000E94020D882309F1EE20F9F080917102DC
:10431000803270F020916C0230916D0238872F83CB
:104320001986DB86CA868C87CE0107960E9478188C
:1043300086E0F801ACE6B2E001900D928A95E1F7D3
:104340000E945220FF24F3945DCFC8010E94781888
:10435000F9CF51110AC08CE692E00E94781886E0ED
:10436000F50111928A95E9F7B1CF49130FC03813BF
:104370000DC0E1100BC0F8012583C8010E94781818
:1043800086E0F50111928A95E9F73CCF8D879E87EB
:104390008D859E850E94020D8823B9F2EE20A9F238
:1043A00080917102803220F220916C0230916D0276
:1043B0003A8329831B82DD82CC828E83CE010196D3
:1043C000B5CFE83CF105E0F6FE2CEE2009F4BDCFB8
:1043D000491316C0381314C08091710280FD83CF39
:1043E000982F907F09F47FCFF8018583903F09F4DF
:1043F00077CF982F907F905F8F70892B858370CFB8
:104400008D879E878D859E850E94020D811190CF9C
:1044100080917102816080937102C8010E947818B6
:10442000F1CEEE2009F491CF8D879E878D859E85F4
:104430000E94020DF82E882309F487CF86E0F80148
:10444000ACE6B2E001900D928A95E1F780916C02A2
:1044500090916D020E94F80C0E945220D3CE21E070
:104460002E25EACE1F93CF93DF93CDB7DEB76797A4
:104470000FB6F894DEBF0FBECDBF342F4B8B252F68
:104480005C8B6D8B7E8B8F8B8E899F8961111092D7
:10449000DD021A8A198A3D872E876F87998B888B50
:1044A00086E0FE013D96DE01179601900D928A95F9
:1044B000E1F7CE0107960E94A820882389F016E034
:1044C0008091A30290917202891349C067960FB63A
:1044D000F894DEBF0FBECDBFDF91CF911F9108953D
:1044E00086E0FE013796DE01119601900D928A95C5
:1044F000E1F78A859B85892B11F38F819885892324
:104500008F3FE9F22091720230E0C9010196877075
:1045100099274091A3024817190671F40E942A15A1
:10452000109272021092A30286E0ECE6F2E0DF0144
:104530001D928A95E9F7C3CF96E0929FD001939F91
:10454000B00D1124AD58BD4FFE01319601900D9272
:104550009A95E1F7809372020E94D406B0CF819FB2
:10456000C00111248D589D4F0E94A820882309F472
:10457000ADCF8091A30290E0019687709927809338
:10458000A3029ECF1F920F920FB60F9211242F936A
:104590003F934F935F936F937F938F939F93AF93CB
:1045A000BF93CF93DF93EF93FF93D091E900DF7038
:1045B0008091EC00C82FC17080FDC0E81092E90026
:1045C0008091F000877F8093F00078940E943F15DF
:1045D0001092E9008091F00088608093F000CD2B6C
:1045E000CF70C093E900FF91EF91DF91CF91BF9120
:1045F000AF919F918F917F916F915F914F913F917B
:104600002F910F900FBE0F901F9018951F920F9231
:104610000FB60F9211242F933F934F935F936F9395
:104620007F938F939F93AF93BF93EF93FF9380916B
:10463000E10082FF09C08091E20082FF05C0809105
:10464000E1008B7F8093E1008091DA0080FF24C03D
:104650008091D80080FF20C08091DA008E7F809307
:10466000DA008091D90080FF9BC080E189BD82E1A2
:1046700089BD09B400FEFDCF81E080936D03809178
:104680004803811109C00E942B040E94F604809106
:10469000E20084608093E2008091E10080FF17C017
:1046A0008091E20080FF13C08091E2008E7F8093B2
:1046B000E2008091E20080618093E2008091D80066
:1046C00080628093D80019BC85E080936D0380914F
:1046D000E10084FF29C08091E20084FF25C080E1D1
:1046E00089BD82E189BD89B5982F917080FFFBCF8C
:1046F0008091D8008F7D8093D8008091E1008F7EDB
:104700008093E1008091E2008F7E8093E2008091AF
:10471000E20081608093E20080916E03882309F4B7
:1047200045C084E080936D038091E10083FF27C042
:104730008091E20083FF23C08091E100877F809316
:10474000E10082E080936D0310926E038091E1009E
:104750008E7F8093E1008091E2008E7F8093E20063
:104760008091E20080618093E20042E060E080E0BE
:104770000E94C4048091F00088608093F000FF9153
:10478000EF91BF91AF919F918F917F916F915F91C9
:104790004F913F912F910F900FBE0F901F90189542
:1047A00019BC10926D031092480376CF8091E300FC
:1047B00087FD93E090936D03B7CFCDB7DEB7AA978F
:1047C0000FB6F894DEBF0FBECDBF84B7877F84BF1E
:1047D0000FB6F894A895809160008861809360007E
:1047E000109260000FBE80E890E00FB6F8948093BE
:1047F0006100909361000FBE85B7806885BF85B763
:10480000806885BF86EB95E090939F0180939E0121
:104810000E942B040E94F6048091E2008460809341
:10482000E200789480916D038823A1F01091E90053
:104830001F709091EC00892F817090FD80E8182BFB
:104840001092E9008091E80083FD0E943F151F70DF
:104850001093E90082E084BD93E095BD9AEF97BD87
:1048600080936E0080E30E948B0A81E30E948B0A92
:1048700082E30E948B0A83E30E948B0A80EF0E94EE
:104880008B0A0EE711E04FE8E42E41E0F42EF80128
:1048900081918F010E948B0AE016F106C1F7E6EEC6
:1048A000F2E08AEF92E0A0E3B3E01192119211924C
:1048B00011921D921D921D921D928E179F07A9F7AE
:1048C00090E080E00E943B2B8A3E9E4F11F00E94B8
:1048D0007C1382E090E00E942D2B809313030E94B2
:1048E000EB0A9093E5028093E4020E940A128FE3A0
:1048F0009CE90197F1F700C000000E940A12809124
:10490000300380FF17C06FEF83E290E00E94412BDD
:104910006FEF84E290E00E94412B6FEF85E290E020
:104920000E94412B6FEF7FEF90E080E00E945F2BB1
:104930000E94450E83E090E00E942D2B682F70E0CE
:1049400090E080E00E940F09279A2F988AE08093D8
:10495000800089E1809381008FEF9FEF9093870023
:10496000809386000E94E7136E9A83E290E00E9493
:104970002D2B813209F027C584E290E00E942D2B77
:10498000863009F020C585E290E00E942D2B803111
:1049900009F019C50E94E7138091FA02811136C00F
:1049A00090E080E00E943B2B8A3E9E4F21F00E94C7
:1049B0007C130E941B1588E090E00E94352B6093C9
:1049C0002B0370932C0380932D0390932E036E7F03
:1049D00071F40E941B1588E090E00E94352B6093D3
:1049E0002B0370932C0380932D0390932E030E942E
:1049F000A00710922A0380912B0380FF04C060E07F
:104A000086950E941C1881E08093FA0282E191E071
:104A10009093FC028093FB0230E4332E80916D036F
:104A2000FF24F39400E112E1853009F4FFC10E94F4
:104A30000A12882359F08FB7F8944091440350919B
:104A4000450360914603709147038FBFE4E1F3E0B3
:104A5000A0E3B3E010E000E0902F4D915D916D91E7
:104A60007D91419051906190719044165506660673
:104A7000770609F402C2442655266626772680E08A
:104A8000C12CD12C7601C394460157018420952076
:104A9000A620B72089288A288B2809F4E6C189A393
:104AA0009AA34C215D216E217F2181E0452B462B6D
:104AB000472B09F480E08BA30E94CA058160782F00
:104AC0009DA38CA349A15AA16BA18DA10E94322262
:104AD000000F111F000F111FF801EC5EFC4F8081C9
:104AE0009181A281B3818C259D25AE25BF25808330
:104AF0009183A283B38380912A038823D1F180918B
:104B00002903E0912B03E695E81BE0930203823032
:104B100009F0CAC1F0E0EE5CF84FE4910E2F10E00E
:104B200026EEE22E21E1F22E80910303882361F02C
:104B3000109203030E94CA0590930103809300031F
:104B400010920503109204030E94CA05E09100032D
:104B5000F09101038E1B9F0B8F3F9F4750F4E00F96
:104B6000F11FF0930103E093000380E093E0F7016D
:104B7000099586E0ECE0F3E0DE01119601900D92DC
:104B80008A95E1F7F0900E03E0900F031091100367
:104B90000091110310920E0310920F031092100354
:104BA000109211038F2D8E2909F448C080910A03B9
:104BB00090910B030E94BB059C01909109039923DE
:104BC00009F424C423333105C8F19F3F19F09F5FD6
:104BD00090930903FF2059F00E94110A9FEF1F14C0
:104BE0000CF491E0899F802D112480930E03EE2018
:104BF00059F00E94110A9FEF1E140CF491E0899F56
:104C0000802D112480930F0330910E033323B1F0D4
:104C100020910F03222391F045EB3403C0011124AE
:104C2000992309F4ADC190930E0345EB2403900141
:104C30001124332309F4A8C130930F03812F802B53
:104C400009F448C080910703909108030E94BB05B6
:104C50009C0190910603992309F4D3C325363105AD
:104C6000C8F19F3F19F09F5F90930603112359F0FD
:104C70000E94EF099FEF11160CF491E0899F802D9F
:104C8000112480931003002359F00E94EF099FEF35
:104C900010160CF491E0899F802D1124809311034C
:104CA000309110033323B1F020911103222391F0AE
:104CB00045EB3403C0011124992309F469C1909391
:104CC000100345EB240390011124332309F464C13C
:104CD0003093110380910E0390910F03892B9091D3
:104CE0001003892B90911103892B11F00E94450824
:104CF00086E0FE013196ACE0B3E001900D928A951A
:104D0000E1F70E941F0790911203891731F00E946A
:104D10001F07809312030E94E50A80916D0384307F
:104D200009F07CCE83E08093E9008091E80082FF67
:104D300075CE8091E80090E085FF06C00E944A048D
:104D4000882309F42DC191E08091E8008B7780934E
:104D5000E800992309F462CEE981E150E33108F0DB
:104D6000C1C1F0E0E250F44D0C94A82A80916D038B
:104D7000843009F445C080E00E942B0780E00E9447
:104D8000E50A10922A038091FF02811116C0F09269
:104D9000FF0280912B03982F91709093FE028E7FDB
:104DA00080932B03FFEF20E742E0F150204040408A
:104DB000E1F700C000000E949F0F1092FD0288E101
:104DC00090E00FB6F894A895809360000FBE3092E3
:104DD000600083B7817F846083BF83B7816083BFB6
:104DE0007894889583B78E7F83BF0FB6F894A89583
:104DF00080916000886180936000109260000FBE17
:104E000080916C03882391F00E940A12E0E3F3E0A2
:104E100081919191A191B191892B8A2B8B2B09F0D2
:104E2000BCC284E493E08E179F0791F780916D03D5
:104E3000853009F49BCF0E942A150E94E7130E9437
:104E40001F070E94E50A1092FF028091FE0288234C
:104E500049F080912B03816080932B0360E086955D
:104E60000E941C180E940618E2CD8F5FCC0CDD1C3E
:104E7000EE1CFF1C813109F007CE0F5F1F4F05307C
:104E8000110509F0E9CD8FEF8EA38FA318A60E941C
:104E9000CA058160782F9AA789A74EA15FA168A54E
:104EA0008AA50E94322227CE863059F4F0E0E15DD7
:104EB000F84FE4910E2F10E09AEFE92E91E1F92ED0
:104EC00033CE893061F4E695F0E0E45DF84FE4918B
:104ED0000E2F10E084EDE82E8FE0F82E25CE8F30D7
:104EE00061F4E695F0E0E75DF84FE4910E2F10E0F5
:104EF000BEEFEB2EBFE0FB2E17CE853159F4F0E06C
:104F0000EA5DF84FE4910E2F10E0ACE6EA2EA0E146
:104F1000FA2E0ACE08E210E07AEBE72E70E1F72EC7
:104F2000883109F401CE833249F4E4E2F7E00591D7
:104F30001491FDE8EF2EF1E1FF2EF6CD04EF11E024
:104F400063E4E62E61E1F62E843209F4EDCD00ED46
:104F500017E055EBE52E55E0F52E853209F0E4CD4E
:104F60008E2F63E00E94662AE92FF0E0EF5DF84F94
:104F7000E4910E2F10E0EDECEE2EE2E1FE2ED4CD0A
:104F800081E080930E0351CE81E080930F0356CED3
:104F900081E08093100395CE81E0809311039ACE37
:104FA00000E210E0CE0101967C018091E80085FDD1
:104FB0000AC08091E8008B778093E8000E944A0441
:104FC000882399F3C0CE8091F100F70181937F018E
:104FD0000150110951F7B7CE1A8289E08B8332C094
:104FE0008A818230C1F0833009F453C0813009F0E6
:104FF00079C02FB7F8946091440370914503809174
:105000004603909147032FBF0E94AE2A6B837C8397
:105010008D839E8317C086E290E00E942D2B90E046
:10502000B0E0A0E0CC24D82EE92EFA2E87E290E062
:105030000E942D2B1B821C82C82ADC24CD24DC2458
:10504000DE82CD8280916D03843009F0E7CC10912F
:10505000E9001F709091EC00892F817090FD80E82D
:10506000182B82E08093E9008091E80080FF0DC05A
:1050700050E040E060E270E0CE0101960E947B04C7
:105080008091E8008E778093E8001F701093E9000C
:10509000C5CCFE013196A0E3B3E04D915D916D91D9
:1050A0007D91628353834483339623E0A434B20713
:1050B000A1F7C8CF8A818230A9F46B817C818D8170
:1050C0009E810E94AE2A6B017C0187E290E00E94E3
:1050D000412B99278F2D7E2D6D2D86E290E00E9429
:1050E000412BB0CF8FEF8983ADCF4C816B818A810B
:1050F0000E94F90A9827892798279E838D83A2CF3B
:10510000ED80FE80FE24EF24FE248A810B8142E2A2
:10511000049F800111249AEA899F000D111D11241A
:105120008C8190E0880F991F080F191F6F2DC801FF
:1051300088960E94412B6E2DC8018996D0CF0E947F
:10514000260D80CF8A81893061F48B81E5E08E9FC6
:10515000C00111246FEF70E00E94802A862F0E9408
:1051600085078A818138C1F060F4803809F06ACF00
:1051700020E04B8160912D0380912C030E9422142A
:1051800061CF823859F1833809F05CCF20E040913B
:105190002E036C818B81F2CF60E08B810E941C1802
:1051A0009B8180912B03911111C08E7F80932B03E3
:1051B00010922A03FFEF20E742E0F15020404040E8
:1051C000E1F700C000000E949F0F3CCF81608093F8
:1051D0002B0360E086950E941C1834CF8B8180934E
:1051E0002F0330CF8A81893059F08A30C1F081385D
:1051F00021F1B8F4803809F025CF80912E03EECE4E
:1052000080912803869586958695EFEF8E9FC00145
:10521000112465E070E00E94802A6B8313CF1B820B
:1052200011CF823891F0833809F00CCF80912C0394
:105230008B8380912D038C8305CF80912B0380FF7E
:1052400002C08695CBCE80E0C9CE80912F03C6CE1A
:10525000809128030E94A50D60912B0370912C036F
:1052600080912D0390912E030E941014EBCE80E1CB
:105270008A83E8CE81E08A8380E3B0CE0A811B81F5
:10528000102701271027CE0101966C01EC80FC014C
:10529000EE0DF11D7F01C80180539D4FCE14DF0438
:1052A00009F4D0CE0033F1E01F0750F40E942D2BFB
:1052B000F60184830F5F1F4FFFEFCF1ADF0AEBCF9A
:1052C000F6011482F7CF0A811B81102701271027CE
:1052D000CE0101966C01EC80E00EF12EF11CC801AC
:1052E00080539D4FE016F10609F4ACCE0033E1E0A7
:1052F0001E0720F4F60164810E94412BFFEFCF1AB4
:10530000DF0A0F5F1F4FEBCF0E94950D9BCE84E00D
:10531000AFCF0A811B81102701271027CE010196EC
:105320006C01EC80FC01EE0DF11D7F01C801889637
:10533000EC14FD0409F486CE083AF2E01F0750F49D
:105340000E942D2BF60184830F5F1F4FFFEFCF1AB2
:10535000DF0AECCFF6011482F7CF0A811B811027F8
:1053600001271027CE0101966C01EC80E00EF12E92
:10537000F11CC8018896E016F10609F463CE083ADC
:10538000E2E01E0720F4F60164810E94412BFFEF4A
:10539000CF1ADF0A0F5F1F4FECCF09BD19BD09B44B
:1053A00000FEFDCF8091D8008F7D8093D800809142
:1053B000E00082608093E0008091E00081FDFCCFFE
:1053C0000E942A1533CD60E087E290E00E94412BD5
:1053D00060E086E290E00E94412B0E94260D0E9430
:1053E000950D61E283E290E00E94412B66E084E249
:1053F00090E00E94412B60E185E290E00E94412B09
:10540000C9CA2D32314008F02ECC64CC2D32314047
:1054100008F0DDCB13CC78941F921FB61F92112495
:105420008F939F93AF93BF938091440390914503D3
:10543000A0914603B09147030196A11DB11D809331
:10544000440390934503A0934603B0934703BF9151
:10545000AF919F918F911F901FBE1F9018951F9223
:105460001FB61F9211248F939F93AF93BF93809188
:10547000FD02811113C08091440390914503A091D6
:105480004603B09147034196A11DB11D809344038B
:1054900090934503A0934603B0934703BF91AF9108
:1054A0009F918F911F901FBE1F901895DB018F93C6
:1054B0009F930E94942BBF91AF91A29F800D911D4D
:1054C000A39F900DB29F900D11240895991B79E030
:1054D00004C0991F961708F0961B881F7A95C9F784
:1054E0008095089587FB082E062687FD819567FD28
:1054F00061950E94662A0EF4919507FC81950895A6
:10550000AA1BBB1B51E107C0AA1FBB1FA617B707E9
:1055100010F0A61BB70B881F991F5A95A9F7809505
:105520009095BC01CD01089597FB072E16F40094C9
:1055300007D077FD09D00E94802A07FC05D03EF4F1
:10554000909581959F4F0895709561957F4F08952F
:10555000EE0FFF1F0590F491E02D0994692796271F
:10556000692778278727782708950E94C92B332336
:1055700012F48A1B9B0B0C94BF2A0E94C92BB7FF05
:105580000895821B930B08958F929F92AF92BF92C2
:10559000CF92DF92EF92FF92CF93DF93EC0168817D
:1055A00079818A819B81611571058105910521F4BD
:1055B00064E279ED8BE597E02DE133EF41E050E0D7
:1055C0000E94752B49015A019B01AC01A7EAB1E485
:1055D0000E94942B6B017C01ACEEB4EFA501940109
:1055E0000E94A22BDC01CB018C0D9D1DAE1DBF1DA9
:1055F000B7FF03C00197A109B04888839983AA83A4
:10560000BB839F77DF91CF91FF90EF90DF90CF909A
:10561000BF90AF909F908F9008950E94C42A0895E4
:1056200080E091E00E94C42A0895B0E0A0E0809359
:10563000000190930101A0930201B093030108952A
:10564000FC014150504030F001900616D1F73197DF
:10565000CF010895882799270895F999FECF92BD23
:1056600081BDF89A992780B50895A6E1B0E044E09D
:1056700050E00C94672BA8E1B0E042E050E00C94BD
:10568000672B262FF999FECF92BD81BDF89A01971D
:1056900000B4021639F01FBA20BD0FB6F894FA9A7A
:1056A000F99A0FBE08950396272F0E94422B0E945D
:1056B000412B252F0E94422B242F0C94422B019624
:1056C000272F0E94422B0C94412BDC01CB01FC01C3
:1056D000F999FECF06C0F2BDE1BDF89A319600B44B
:1056E0000D9241505040B8F70895052E97FB1EF4D7
:1056F00000940E948C2B57FD07D00E94A72B07FC1B
:1057000003D04EF40C948C2B5095409530952195F8
:105710003F4F4F4F5F4F08959095809570956195DD
:105720007F4F8F4F9F4F08950E94C92BA59F900DCB
:10573000B49F900DA49F800D911D11240895B7FF73
:105740000C94942B0E94942B821B930B0895A1E23E
:105750001A2EAA1BBB1BFD010DC0AA1FBB1FEE1FEB
:10576000FF1FA217B307E407F50720F0A21BB30B36
:10577000E40BF50B661F771F881F991F1A9469F7B2
:1057800060957095809590959B01AC01BD01CF010E
:105790000895A29FB001B39FC001A39F700D811D0A
:1057A0001124911DB29F700D811D1124911D08952A
:1057B000F894FFCF110D110D1A0D1A0D1C0D1A0DB5
:1057C0001A0D1A0D110D110D210D1A0D1A0D210DA5
:1057D00024164C169F164C169F167F16B7169F164A
:1057E000B417C117FD1BFD1B721C721CD01CEA1CD8
:1057F000341C341CF51CCB1DDC1DDC1DEC27F027F4
:105800005A28752880289F28A228F228282972283B
:10581000722837293A293E29632984298729892929
:02582000AD29B0
:105822000100000001191A1B1C1D1E1F202122014C
:105832000201B805050EE40DE00DDC0D01000102C8
:105842000202020606060909090909090F0F0F0FCC
:105852000F0F1515151819191919191919191919D7
:105862002324252525252525818283E200E900EAD6
:1058720000B500B600B700CD008301CC008A0192CA
:105882000194012102230224022502260227022A70
:1058920002B300B4006F00700030313233F035369D
:1058A2006667F7F6F5F4F1919293959496973440E2
:0E58B20022B684016201AC004807610781073D
:00000001FF
